{
  "_format": "hh-sol-artifact-1",
  "contractName": "ChubbyGrubbies",
  "sourceName": "contracts/ChubbyGrubbies.sol",
  "abi": [
    {
      "inputs": [],
      "stateMutability": "nonpayable",
      "type": "constructor"
    },
    {
      "anonymous": false,
      "inputs": [
        {
          "indexed": true,
          "internalType": "address",
          "name": "owner",
          "type": "address"
        },
        {
          "indexed": true,
          "internalType": "address",
          "name": "approved",
          "type": "address"
        },
        {
          "indexed": true,
          "internalType": "uint256",
          "name": "tokenId",
          "type": "uint256"
        }
      ],
      "name": "Approval",
      "type": "event"
    },
    {
      "anonymous": false,
      "inputs": [
        {
          "indexed": true,
          "internalType": "address",
          "name": "owner",
          "type": "address"
        },
        {
          "indexed": true,
          "internalType": "address",
          "name": "operator",
          "type": "address"
        },
        {
          "indexed": false,
          "internalType": "bool",
          "name": "approved",
          "type": "bool"
        }
      ],
      "name": "ApprovalForAll",
      "type": "event"
    },
    {
      "anonymous": false,
      "inputs": [
        {
          "indexed": false,
          "internalType": "address",
          "name": "owner",
          "type": "address"
        },
        {
          "indexed": false,
          "internalType": "uint256",
          "name": "tokenId",
          "type": "uint256"
        }
      ],
      "name": "SeedPlanted",
      "type": "event"
    },
    {
      "anonymous": false,
      "inputs": [
        {
          "indexed": true,
          "internalType": "address",
          "name": "from",
          "type": "address"
        },
        {
          "indexed": true,
          "internalType": "address",
          "name": "to",
          "type": "address"
        },
        {
          "indexed": true,
          "internalType": "uint256",
          "name": "tokenId",
          "type": "uint256"
        }
      ],
      "name": "Transfer",
      "type": "event"
    },
    {
      "anonymous": false,
      "inputs": [
        {
          "indexed": false,
          "internalType": "uint256",
          "name": "tokenId",
          "type": "uint256"
        }
      ],
      "name": "TreeChange",
      "type": "event"
    },
    {
      "inputs": [
        {
          "internalType": "address",
          "name": "to",
          "type": "address"
        },
        {
          "internalType": "uint256",
          "name": "tokenId",
          "type": "uint256"
        }
      ],
      "name": "approve",
      "outputs": [],
      "stateMutability": "nonpayable",
      "type": "function"
    },
    {
      "inputs": [
        {
          "internalType": "address",
          "name": "owner",
          "type": "address"
        }
      ],
      "name": "balanceOf",
      "outputs": [
        {
          "internalType": "uint256",
          "name": "",
          "type": "uint256"
        }
      ],
      "stateMutability": "view",
      "type": "function"
    },
    {
      "inputs": [
        {
          "internalType": "uint256",
          "name": "tokenId",
          "type": "uint256"
        }
      ],
      "name": "getApproved",
      "outputs": [
        {
          "internalType": "address",
          "name": "",
          "type": "address"
        }
      ],
      "stateMutability": "view",
      "type": "function"
    },
    {
      "inputs": [],
      "name": "getCurrentMintCost",
      "outputs": [
        {
          "internalType": "uint256",
          "name": "",
          "type": "uint256"
        }
      ],
      "stateMutability": "view",
      "type": "function"
    },
    {
      "inputs": [
        {
          "internalType": "uint256",
          "name": "tokenId",
          "type": "uint256"
        }
      ],
      "name": "getTreeDisplay",
      "outputs": [
        {
          "components": [
            {
              "internalType": "uint256",
              "name": "rarity",
              "type": "uint256"
            },
            {
              "internalType": "uint256",
              "name": "size",
              "type": "uint256"
            },
            {
              "components": [
                {
                  "internalType": "uint256",
                  "name": "begin",
                  "type": "uint256"
                },
                {
                  "internalType": "address",
                  "name": "owner",
                  "type": "address"
                }
              ],
              "internalType": "struct ChubbyGrubbies.Owner[]",
              "name": "owners",
              "type": "tuple[]"
            }
          ],
          "internalType": "struct ChubbyGrubbies.TreeDisplay",
          "name": "",
          "type": "tuple"
        }
      ],
      "stateMutability": "view",
      "type": "function"
    },
    {
      "inputs": [
        {
          "internalType": "uint256",
          "name": "tokenId",
          "type": "uint256"
        }
      ],
      "name": "growTree",
      "outputs": [],
      "stateMutability": "payable",
      "type": "function"
    },
    {
      "inputs": [
        {
          "internalType": "address",
          "name": "owner",
          "type": "address"
        },
        {
          "internalType": "address",
          "name": "operator",
          "type": "address"
        }
      ],
      "name": "isApprovedForAll",
      "outputs": [
        {
          "internalType": "bool",
          "name": "",
          "type": "bool"
        }
      ],
      "stateMutability": "view",
      "type": "function"
    },
    {
      "inputs": [
        {
          "internalType": "uint256",
          "name": "tokenId",
          "type": "uint256"
        }
      ],
      "name": "isSprouted",
      "outputs": [
        {
          "internalType": "bool",
          "name": "",
          "type": "bool"
        }
      ],
      "stateMutability": "view",
      "type": "function"
    },
    {
      "inputs": [
        {
          "internalType": "uint256",
          "name": "tokenId",
          "type": "uint256"
        }
      ],
      "name": "isTree",
      "outputs": [
        {
          "internalType": "bool",
          "name": "",
          "type": "bool"
        }
      ],
      "stateMutability": "view",
      "type": "function"
    },
    {
      "inputs": [],
      "name": "name",
      "outputs": [
        {
          "internalType": "string",
          "name": "",
          "type": "string"
        }
      ],
      "stateMutability": "view",
      "type": "function"
    },
    {
      "inputs": [
        {
          "internalType": "uint256",
          "name": "tokenId",
          "type": "uint256"
        }
      ],
      "name": "ownerOf",
      "outputs": [
        {
          "internalType": "address",
          "name": "",
          "type": "address"
        }
      ],
      "stateMutability": "view",
      "type": "function"
    },
    {
      "inputs": [],
      "name": "plantSeed",
      "outputs": [],
      "stateMutability": "payable",
      "type": "function"
    },
    {
      "inputs": [
        {
          "internalType": "address",
          "name": "from",
          "type": "address"
        },
        {
          "internalType": "address",
          "name": "to",
          "type": "address"
        },
        {
          "internalType": "uint256",
          "name": "tokenId",
          "type": "uint256"
        }
      ],
      "name": "safeTransferFrom",
      "outputs": [],
      "stateMutability": "nonpayable",
      "type": "function"
    },
    {
      "inputs": [
        {
          "internalType": "address",
          "name": "from",
          "type": "address"
        },
        {
          "internalType": "address",
          "name": "to",
          "type": "address"
        },
        {
          "internalType": "uint256",
          "name": "tokenId",
          "type": "uint256"
        },
        {
          "internalType": "bytes",
          "name": "_data",
          "type": "bytes"
        }
      ],
      "name": "safeTransferFrom",
      "outputs": [],
      "stateMutability": "nonpayable",
      "type": "function"
    },
    {
      "inputs": [
        {
          "internalType": "address",
          "name": "operator",
          "type": "address"
        },
        {
          "internalType": "bool",
          "name": "approved",
          "type": "bool"
        }
      ],
      "name": "setApprovalForAll",
      "outputs": [],
      "stateMutability": "nonpayable",
      "type": "function"
    },
    {
      "inputs": [
        {
          "internalType": "bytes4",
          "name": "interfaceId",
          "type": "bytes4"
        }
      ],
      "name": "supportsInterface",
      "outputs": [
        {
          "internalType": "bool",
          "name": "",
          "type": "bool"
        }
      ],
      "stateMutability": "view",
      "type": "function"
    },
    {
      "inputs": [],
      "name": "symbol",
      "outputs": [
        {
          "internalType": "string",
          "name": "",
          "type": "string"
        }
      ],
      "stateMutability": "view",
      "type": "function"
    },
    {
      "inputs": [
        {
          "internalType": "uint256",
          "name": "tokenId",
          "type": "uint256"
        }
      ],
      "name": "tokenURI",
      "outputs": [
        {
          "internalType": "string",
          "name": "",
          "type": "string"
        }
      ],
      "stateMutability": "view",
      "type": "function"
    },
    {
      "inputs": [
        {
          "internalType": "address",
          "name": "from",
          "type": "address"
        },
        {
          "internalType": "address",
          "name": "to",
          "type": "address"
        },
        {
          "internalType": "uint256",
          "name": "tokenId",
          "type": "uint256"
        }
      ],
      "name": "transferFrom",
      "outputs": [],
      "stateMutability": "nonpayable",
      "type": "function"
    }
  ],
  "bytecode": "0x6080604052670de0b6b3a7640000600655670de0b6b3a764000060075560016008553480156200002e57600080fd5b506040518060400160405280600e81526020017f43687562627947727562626965730000000000000000000000000000000000008152506040518060400160405280600681526020017f43485542425900000000000000000000000000000000000000000000000000008152508160009081620000ac919062000341565b508060019081620000be919062000341565b50505062000428565b600081519050919050565b7f4e487b7100000000000000000000000000000000000000000000000000000000600052604160045260246000fd5b7f4e487b7100000000000000000000000000000000000000000000000000000000600052602260045260246000fd5b600060028204905060018216806200014957607f821691505b6020821081036200015f576200015e62000101565b5b50919050565b60008190508160005260206000209050919050565b60006020601f8301049050919050565b600082821b905092915050565b600060088302620001c97fffffffffffffffffffffffffffffffffffffffffffffffffffffffffffffffff826200018a565b620001d586836200018a565b95508019841693508086168417925050509392505050565b6000819050919050565b6000819050919050565b6000620002226200021c6200021684620001ed565b620001f7565b620001ed565b9050919050565b6000819050919050565b6200023e8362000201565b620002566200024d8262000229565b84845462000197565b825550505050565b600090565b6200026d6200025e565b6200027a81848462000233565b505050565b5b81811015620002a2576200029660008262000263565b60018101905062000280565b5050565b601f821115620002f157620002bb8162000165565b620002c6846200017a565b81016020851015620002d6578190505b620002ee620002e5856200017a565b8301826200027f565b50505b505050565b600082821c905092915050565b60006200031660001984600802620002f6565b1980831691505092915050565b600062000331838362000303565b9150826002028217905092915050565b6200034c82620000c7565b67ffffffffffffffff811115620003685762000367620000d2565b5b62000374825462000130565b62000381828285620002a6565b600060209050601f831160018114620003b95760008415620003a4578287015190505b620003b0858262000323565b86555062000420565b601f198416620003c98662000165565b60005b82811015620003f357848901518255600182019150602085019450602081019050620003cc565b868310156200041357848901516200040f601f89168262000303565b8355505b6001600288020188555050505b505050505050565b6131f480620004386000396000f3fe6080604052600436106101145760003560e01c806374119a38116100a0578063b88d4fde11610064578063b88d4fde14610395578063c3810fa5146103be578063c87b56dd146103fb578063e985e9c514610438578063f62557601461047557610114565b806374119a38146102de5780637ca58c91146102e857806395d89b4114610304578063a22cb4651461032f578063aa67c2441461035857610114565b806323b872dd116100e757806323b872dd146101e757806342842e0e146102105780636352211e146102395780636f6096331461027657806370a08231146102a157610114565b806301ffc9a71461011957806306fdde0314610156578063081812fc14610181578063095ea7b3146101be575b600080fd5b34801561012557600080fd5b50610140600480360381019061013b9190611e0c565b6104b2565b60405161014d9190611e54565b60405180910390f35b34801561016257600080fd5b5061016b610594565b6040516101789190611f08565b60405180910390f35b34801561018d57600080fd5b506101a860048036038101906101a39190611f60565b610626565b6040516101b59190611fce565b60405180910390f35b3480156101ca57600080fd5b506101e560048036038101906101e09190612015565b6106ab565b005b3480156101f357600080fd5b5061020e60048036038101906102099190612055565b6107c2565b005b34801561021c57600080fd5b5061023760048036038101906102329190612055565b610822565b005b34801561024557600080fd5b50610260600480360381019061025b9190611f60565b610842565b60405161026d9190611fce565b60405180910390f35b34801561028257600080fd5b5061028b6108f3565b60405161029891906120b7565b60405180910390f35b3480156102ad57600080fd5b506102c860048036038101906102c391906120d2565b6108fd565b6040516102d591906120b7565b60405180910390f35b6102e66109b4565b005b61030260048036038101906102fd9190611f60565b610ab4565b005b34801561031057600080fd5b50610319610b83565b6040516103269190611f08565b60405180910390f35b34801561033b57600080fd5b506103566004803603810190610351919061212b565b610c15565b005b34801561036457600080fd5b5061037f600480360381019061037a9190611f60565b610c2b565b60405161038c91906122b7565b60405180910390f35b3480156103a157600080fd5b506103bc60048036038101906103b7919061240e565b610d8b565b005b3480156103ca57600080fd5b506103e560048036038101906103e09190611f60565b610ded565b6040516103f29190611e54565b60405180910390f35b34801561040757600080fd5b50610422600480360381019061041d9190611f60565b610e03565b60405161042f9190611f08565b60405180910390f35b34801561044457600080fd5b5061045f600480360381019061045a9190612491565b610eaa565b60405161046c9190611e54565b60405180910390f35b34801561048157600080fd5b5061049c60048036038101906104979190611f60565b610f3e565b6040516104a99190611e54565b60405180910390f35b60007f80ac58cd000000000000000000000000000000000000000000000000000000007bffffffffffffffffffffffffffffffffffffffffffffffffffffffff1916827bffffffffffffffffffffffffffffffffffffffffffffffffffffffff1916148061057d57507f5b5e139f000000000000000000000000000000000000000000000000000000007bffffffffffffffffffffffffffffffffffffffffffffffffffffffff1916827bffffffffffffffffffffffffffffffffffffffffffffffffffffffff1916145b8061058d575061058c82610f5e565b5b9050919050565b6060600080546105a390612500565b80601f01602080910402602001604051908101604052809291908181526020018280546105cf90612500565b801561061c5780601f106105f15761010080835404028352916020019161061c565b820191906000526020600020905b8154815290600101906020018083116105ff57829003601f168201915b5050505050905090565b600061063182610fc8565b610670576040517f08c379a0000000000000000000000000000000000000000000000000000000008152600401610667906125a3565b60405180910390fd5b6004600083815260200190815260200160002060009054906101000a900473ffffffffffffffffffffffffffffffffffffffff169050919050565b60006106b682610842565b90508073ffffffffffffffffffffffffffffffffffffffff168373ffffffffffffffffffffffffffffffffffffffff1603610726576040517f08c379a000000000000000000000000000000000000000000000000000000000815260040161071d90612635565b60405180910390fd5b8073ffffffffffffffffffffffffffffffffffffffff16610745611034565b73ffffffffffffffffffffffffffffffffffffffff16148061077457506107738161076e611034565b610eaa565b5b6107b3576040517f08c379a00000000000000000000000000000000000000000000000000000000081526004016107aa906126c7565b60405180910390fd5b6107bd838361103c565b505050565b6107d36107cd611034565b826110f5565b610812576040517f08c379a000000000000000000000000000000000000000000000000000000000815260040161080990612759565b60405180910390fd5b61081d8383836111d3565b505050565b61083d83838360405180602001604052806000815250610d8b565b505050565b6000806002600084815260200190815260200160002060009054906101000a900473ffffffffffffffffffffffffffffffffffffffff169050600073ffffffffffffffffffffffffffffffffffffffff168173ffffffffffffffffffffffffffffffffffffffff16036108ea576040517f08c379a00000000000000000000000000000000000000000000000000000000081526004016108e1906127eb565b60405180910390fd5b80915050919050565b6000600654905090565b60008073ffffffffffffffffffffffffffffffffffffffff168273ffffffffffffffffffffffffffffffffffffffff160361096d576040517f08c379a00000000000000000000000000000000000000000000000000000000081526004016109649061287d565b60405180910390fd5b600360008373ffffffffffffffffffffffffffffffffffffffff1673ffffffffffffffffffffffffffffffffffffffff168152602001908152602001600020549050919050565b60006109be6108f3565b905080341015610a03576040517f08c379a00000000000000000000000000000000000000000000000000000000081526004016109fa906128e9565b60405180910390fd5b610a0d6009611439565b60003390506000610a1e600961144f565b9050610a2a828261145d565b610a3f818434610a3a9190612938565b611636565b7f747d8837f4c4a679877b5b9ac39bdf2d007b0848be9a28debd8c94eee499800a8282604051610a7092919061296c565b60405180910390a17f44cd5fa33672cba161f4f6b146d51d0604c2b07e52b93783c6ed65613932aa6381604051610aa791906120b7565b60405180910390a1505050565b610abd81610ded565b610afc576040517f08c379a0000000000000000000000000000000000000000000000000000000008152600401610af3906129e1565b60405180910390fd5b60003411610b3f576040517f08c379a0000000000000000000000000000000000000000000000000000000008152600401610b3690612a4d565b60405180910390fd5b610b498134611636565b7f44cd5fa33672cba161f4f6b146d51d0604c2b07e52b93783c6ed65613932aa6381604051610b7891906120b7565b60405180910390a150565b606060018054610b9290612500565b80601f0160208091040260200160405190810160405280929190818152602001828054610bbe90612500565b8015610c0b5780601f10610be057610100808354040283529160200191610c0b565b820191906000526020600020905b815481529060010190602001808311610bee57829003601f168201915b5050505050905090565b610c27610c20611034565b83836116f9565b5050565b610c33611d7f565b610c3c82610ded565b610c7b576040517f08c379a0000000000000000000000000000000000000000000000000000000008152600401610c72906129e1565b60405180910390fd5b6040518060600160405280600b6000858152602001908152602001600020548152602001600a6000858152602001908152602001600020548152602001600c6000858152602001908152602001600020805480602002602001604051908101604052809291908181526020016000905b82821015610d7d5783829060005260206000209060020201604051806040016040529081600082015481526020016001820160009054906101000a900473ffffffffffffffffffffffffffffffffffffffff1673ffffffffffffffffffffffffffffffffffffffff1673ffffffffffffffffffffffffffffffffffffffff168152505081526020019060010190610ceb565b505050508152509050919050565b610d9c610d96611034565b836110f5565b610ddb576040517f08c379a0000000000000000000000000000000000000000000000000000000008152600401610dd290612759565b60405180910390fd5b610de784848484611865565b50505050565b6000610df9600961144f565b8211159050919050565b6060610e0e82610fc8565b610e4d576040517f08c379a0000000000000000000000000000000000000000000000000000000008152600401610e4490612adf565b60405180910390fd5b6000610e576118c1565b90506000815111610e775760405180602001604052806000815250610ea2565b80610e81846118d8565b604051602001610e92929190612b3b565b6040516020818303038152906040525b915050919050565b6000600560008473ffffffffffffffffffffffffffffffffffffffff1673ffffffffffffffffffffffffffffffffffffffff16815260200190815260200160002060008373ffffffffffffffffffffffffffffffffffffffff1673ffffffffffffffffffffffffffffffffffffffff16815260200190815260200160002060009054906101000a900460ff16905092915050565b600080600b60008481526020019081526020016000205414159050919050565b60007f01ffc9a7000000000000000000000000000000000000000000000000000000007bffffffffffffffffffffffffffffffffffffffffffffffffffffffff1916827bffffffffffffffffffffffffffffffffffffffffffffffffffffffff1916149050919050565b60008073ffffffffffffffffffffffffffffffffffffffff166002600084815260200190815260200160002060009054906101000a900473ffffffffffffffffffffffffffffffffffffffff1673ffffffffffffffffffffffffffffffffffffffff1614159050919050565b600033905090565b816004600083815260200190815260200160002060006101000a81548173ffffffffffffffffffffffffffffffffffffffff021916908373ffffffffffffffffffffffffffffffffffffffff160217905550808273ffffffffffffffffffffffffffffffffffffffff166110af83610842565b73ffffffffffffffffffffffffffffffffffffffff167f8c5be1e5ebec7d5bd14f71427d1e84f3dd0314c0f7b2291e5b200ac8c7c3b92560405160405180910390a45050565b600061110082610fc8565b61113f576040517f08c379a000000000000000000000000000000000000000000000000000000000815260040161113690612bd1565b60405180910390fd5b600061114a83610842565b90508073ffffffffffffffffffffffffffffffffffffffff168473ffffffffffffffffffffffffffffffffffffffff16148061118c575061118b8185610eaa565b5b806111ca57508373ffffffffffffffffffffffffffffffffffffffff166111b284610626565b73ffffffffffffffffffffffffffffffffffffffff16145b91505092915050565b8273ffffffffffffffffffffffffffffffffffffffff166111f382610842565b73ffffffffffffffffffffffffffffffffffffffff1614611249576040517f08c379a000000000000000000000000000000000000000000000000000000000815260040161124090612c63565b60405180910390fd5b600073ffffffffffffffffffffffffffffffffffffffff168273ffffffffffffffffffffffffffffffffffffffff16036112b8576040517f08c379a00000000000000000000000000000000000000000000000000000000081526004016112af90612cf5565b60405180910390fd5b6112c3838383611a38565b6112ce60008261103c565b6001600360008573ffffffffffffffffffffffffffffffffffffffff1673ffffffffffffffffffffffffffffffffffffffff168152602001908152602001600020600082825461131e9190612938565b925050819055506001600360008473ffffffffffffffffffffffffffffffffffffffff1673ffffffffffffffffffffffffffffffffffffffff16815260200190815260200160002060008282546113759190612d15565b92505081905550816002600083815260200190815260200160002060006101000a81548173ffffffffffffffffffffffffffffffffffffffff021916908373ffffffffffffffffffffffffffffffffffffffff160217905550808273ffffffffffffffffffffffffffffffffffffffff168473ffffffffffffffffffffffffffffffffffffffff167fddf252ad1be2c89b69c2b068fc378daa952ba7f163c4a11628f55a4df523b3ef60405160405180910390a4611434838383611a3d565b505050565b6001816000016000828254019250508190555050565b600081600001549050919050565b600073ffffffffffffffffffffffffffffffffffffffff168273ffffffffffffffffffffffffffffffffffffffff16036114cc576040517f08c379a00000000000000000000000000000000000000000000000000000000081526004016114c390612db7565b60405180910390fd5b6114d581610fc8565b15611515576040517f08c379a000000000000000000000000000000000000000000000000000000000815260040161150c90612e23565b60405180910390fd5b61152160008383611a38565b6001600360008473ffffffffffffffffffffffffffffffffffffffff1673ffffffffffffffffffffffffffffffffffffffff16815260200190815260200160002060008282546115719190612d15565b92505081905550816002600083815260200190815260200160002060006101000a81548173ffffffffffffffffffffffffffffffffffffffff021916908373ffffffffffffffffffffffffffffffffffffffff160217905550808273ffffffffffffffffffffffffffffffffffffffff16600073ffffffffffffffffffffffffffffffffffffffff167fddf252ad1be2c89b69c2b068fc378daa952ba7f163c4a11628f55a4df523b3ef60405160405180910390a461163260008383611a3d565b5050565b61163f82610ded565b61167e576040517f08c379a0000000000000000000000000000000000000000000000000000000008152600401611675906129e1565b60405180910390fd5b60006007548261168e9190612e72565b905080600a600085815260200190815260200160002060008282546116b39190612d15565b925050819055506116c383610f3e565b1580156116e55750600854600a60008581526020019081526020016000205410155b156116f4576116f383611afc565b5b505050565b8173ffffffffffffffffffffffffffffffffffffffff168373ffffffffffffffffffffffffffffffffffffffff1603611767576040517f08c379a000000000000000000000000000000000000000000000000000000000815260040161175e90612eef565b60405180910390fd5b80600560008573ffffffffffffffffffffffffffffffffffffffff1673ffffffffffffffffffffffffffffffffffffffff16815260200190815260200160002060008473ffffffffffffffffffffffffffffffffffffffff1673ffffffffffffffffffffffffffffffffffffffff16815260200190815260200160002060006101000a81548160ff0219169083151502179055508173ffffffffffffffffffffffffffffffffffffffff168373ffffffffffffffffffffffffffffffffffffffff167f17307eab39ab6107e8899845ad3d59bd9653f200f220920489ca2b5937696c31836040516118589190611e54565b60405180910390a3505050565b6118708484846111d3565b61187c84848484611bb5565b6118bb576040517f08c379a00000000000000000000000000000000000000000000000000000000081526004016118b290612f81565b60405180910390fd5b50505050565b606060405180602001604052806000815250905090565b60606000820361191f576040518060400160405280600181526020017f30000000000000000000000000000000000000000000000000000000000000008152509050611a33565b600082905060005b6000821461195157808061193a90612fa1565b915050600a8261194a9190612e72565b9150611927565b60008167ffffffffffffffff81111561196d5761196c6122e3565b5b6040519080825280601f01601f19166020018201604052801561199f5781602001600182028036833780820191505090505b5090505b60008514611a2c576001826119b89190612938565b9150600a856119c79190612fe9565b60306119d39190612d15565b60f81b8183815181106119e9576119e861301a565b5b60200101907effffffffffffffffffffffffffffffffffffffffffffffffffffffffffffff1916908160001a905350600a85611a259190612e72565b94506119a3565b8093505050505b919050565b505050565b600c600082815260200190815260200160002060405180604001604052804281526020018473ffffffffffffffffffffffffffffffffffffffff1681525090806001815401808255809150506001900390600052602060002090600202016000909190919091506000820151816000015560208201518160010160006101000a81548173ffffffffffffffffffffffffffffffffffffffff021916908373ffffffffffffffffffffffffffffffffffffffff1602179055505050505050565b611b0581610f3e565b15611b45576040517f08c379a0000000000000000000000000000000000000000000000000000000008152600401611b3c906130bb565b60405180910390fd5b611b4e81610ded565b611b8d576040517f08c379a0000000000000000000000000000000000000000000000000000000008152600401611b84906129e1565b60405180910390fd5b6000611b97611d3c565b905080600b6000848152602001908152602001600020819055505050565b6000611bd68473ffffffffffffffffffffffffffffffffffffffff16611d5c565b15611d2f578373ffffffffffffffffffffffffffffffffffffffff1663150b7a02611bff611034565b8786866040518563ffffffff1660e01b8152600401611c219493929190613130565b6020604051808303816000875af1925050508015611c5d57506040513d601f19601f82011682018060405250810190611c5a9190613191565b60015b611cdf573d8060008114611c8d576040519150601f19603f3d011682016040523d82523d6000602084013e611c92565b606091505b506000815103611cd7576040517f08c379a0000000000000000000000000000000000000000000000000000000008152600401611cce90612f81565b60405180910390fd5b805181602001fd5b63150b7a0260e01b7bffffffffffffffffffffffffffffffffffffffffffffffffffffffff1916817bffffffffffffffffffffffffffffffffffffffffffffffffffffffff191614915050611d34565b600190505b949350505050565b60006001600542611d4d9190612fe9565b611d579190612d15565b905090565b6000808273ffffffffffffffffffffffffffffffffffffffff163b119050919050565b60405180606001604052806000815260200160008152602001606081525090565b6000604051905090565b600080fd5b600080fd5b60007fffffffff0000000000000000000000000000000000000000000000000000000082169050919050565b611de981611db4565b8114611df457600080fd5b50565b600081359050611e0681611de0565b92915050565b600060208284031215611e2257611e21611daa565b5b6000611e3084828501611df7565b91505092915050565b60008115159050919050565b611e4e81611e39565b82525050565b6000602082019050611e696000830184611e45565b92915050565b600081519050919050565b600082825260208201905092915050565b60005b83811015611ea9578082015181840152602081019050611e8e565b83811115611eb8576000848401525b50505050565b6000601f19601f8301169050919050565b6000611eda82611e6f565b611ee48185611e7a565b9350611ef4818560208601611e8b565b611efd81611ebe565b840191505092915050565b60006020820190508181036000830152611f228184611ecf565b905092915050565b6000819050919050565b611f3d81611f2a565b8114611f4857600080fd5b50565b600081359050611f5a81611f34565b92915050565b600060208284031215611f7657611f75611daa565b5b6000611f8484828501611f4b565b91505092915050565b600073ffffffffffffffffffffffffffffffffffffffff82169050919050565b6000611fb882611f8d565b9050919050565b611fc881611fad565b82525050565b6000602082019050611fe36000830184611fbf565b92915050565b611ff281611fad565b8114611ffd57600080fd5b50565b60008135905061200f81611fe9565b92915050565b6000806040838503121561202c5761202b611daa565b5b600061203a85828601612000565b925050602061204b85828601611f4b565b9150509250929050565b60008060006060848603121561206e5761206d611daa565b5b600061207c86828701612000565b935050602061208d86828701612000565b925050604061209e86828701611f4b565b9150509250925092565b6120b181611f2a565b82525050565b60006020820190506120cc60008301846120a8565b92915050565b6000602082840312156120e8576120e7611daa565b5b60006120f684828501612000565b91505092915050565b61210881611e39565b811461211357600080fd5b50565b600081359050612125816120ff565b92915050565b6000806040838503121561214257612141611daa565b5b600061215085828601612000565b925050602061216185828601612116565b9150509250929050565b61217481611f2a565b82525050565b600081519050919050565b600082825260208201905092915050565b6000819050602082019050919050565b6121af81611fad565b82525050565b6040820160008201516121cb600085018261216b565b5060208201516121de60208501826121a6565b50505050565b60006121f083836121b5565b60408301905092915050565b6000602082019050919050565b60006122148261217a565b61221e8185612185565b935061222983612196565b8060005b8381101561225a57815161224188826121e4565b975061224c836121fc565b92505060018101905061222d565b5085935050505092915050565b600060608301600083015161227f600086018261216b565b506020830151612292602086018261216b565b50604083015184820360408601526122aa8282612209565b9150508091505092915050565b600060208201905081810360008301526122d18184612267565b905092915050565b600080fd5b600080fd5b7f4e487b7100000000000000000000000000000000000000000000000000000000600052604160045260246000fd5b61231b82611ebe565b810181811067ffffffffffffffff8211171561233a576123396122e3565b5b80604052505050565b600061234d611da0565b90506123598282612312565b919050565b600067ffffffffffffffff821115612379576123786122e3565b5b61238282611ebe565b9050602081019050919050565b82818337600083830152505050565b60006123b16123ac8461235e565b612343565b9050828152602081018484840111156123cd576123cc6122de565b5b6123d884828561238f565b509392505050565b600082601f8301126123f5576123f46122d9565b5b813561240584826020860161239e565b91505092915050565b6000806000806080858703121561242857612427611daa565b5b600061243687828801612000565b945050602061244787828801612000565b935050604061245887828801611f4b565b925050606085013567ffffffffffffffff81111561247957612478611daf565b5b612485878288016123e0565b91505092959194509250565b600080604083850312156124a8576124a7611daa565b5b60006124b685828601612000565b92505060206124c785828601612000565b9150509250929050565b7f4e487b7100000000000000000000000000000000000000000000000000000000600052602260045260246000fd5b6000600282049050600182168061251857607f821691505b60208210810361252b5761252a6124d1565b5b50919050565b7f4552433732313a20617070726f76656420717565727920666f72206e6f6e657860008201527f697374656e7420746f6b656e0000000000000000000000000000000000000000602082015250565b600061258d602c83611e7a565b915061259882612531565b604082019050919050565b600060208201905081810360008301526125bc81612580565b9050919050565b7f4552433732313a20617070726f76616c20746f2063757272656e74206f776e6560008201527f7200000000000000000000000000000000000000000000000000000000000000602082015250565b600061261f602183611e7a565b915061262a826125c3565b604082019050919050565b6000602082019050818103600083015261264e81612612565b9050919050565b7f4552433732313a20617070726f76652063616c6c6572206973206e6f74206f7760008201527f6e6572206e6f7220617070726f76656420666f7220616c6c0000000000000000602082015250565b60006126b1603883611e7a565b91506126bc82612655565b604082019050919050565b600060208201905081810360008301526126e0816126a4565b9050919050565b7f4552433732313a207472616e736665722063616c6c6572206973206e6f74206f60008201527f776e6572206e6f7220617070726f766564000000000000000000000000000000602082015250565b6000612743603183611e7a565b915061274e826126e7565b604082019050919050565b6000602082019050818103600083015261277281612736565b9050919050565b7f4552433732313a206f776e657220717565727920666f72206e6f6e657869737460008201527f656e7420746f6b656e0000000000000000000000000000000000000000000000602082015250565b60006127d5602983611e7a565b91506127e082612779565b604082019050919050565b60006020820190508181036000830152612804816127c8565b9050919050565b7f4552433732313a2062616c616e636520717565727920666f7220746865207a6560008201527f726f206164647265737300000000000000000000000000000000000000000000602082015250565b6000612867602a83611e7a565b91506128728261280b565b604082019050919050565b600060208201905081810360008301526128968161285a565b9050919050565b7f4d696e7420636f7374206e6f7420636f76657265640000000000000000000000600082015250565b60006128d3601583611e7a565b91506128de8261289d565b602082019050919050565b60006020820190508181036000830152612902816128c6565b9050919050565b7f4e487b7100000000000000000000000000000000000000000000000000000000600052601160045260246000fd5b600061294382611f2a565b915061294e83611f2a565b92508282101561296157612960612909565b5b828203905092915050565b60006040820190506129816000830185611fbf565b61298e60208301846120a8565b9392505050565b7f496e76616c696420746f6b656e20494400000000000000000000000000000000600082015250565b60006129cb601083611e7a565b91506129d682612995565b602082019050919050565b600060208201905081810360008301526129fa816129be565b9050919050565b7f4d757374207370656e6420746f2067726f772074726565000000000000000000600082015250565b6000612a37601783611e7a565b9150612a4282612a01565b602082019050919050565b60006020820190508181036000830152612a6681612a2a565b9050919050565b7f4552433732314d657461646174613a2055524920717565727920666f72206e6f60008201527f6e6578697374656e7420746f6b656e0000000000000000000000000000000000602082015250565b6000612ac9602f83611e7a565b9150612ad482612a6d565b604082019050919050565b60006020820190508181036000830152612af881612abc565b9050919050565b600081905092915050565b6000612b1582611e6f565b612b1f8185612aff565b9350612b2f818560208601611e8b565b80840191505092915050565b6000612b478285612b0a565b9150612b538284612b0a565b91508190509392505050565b7f4552433732313a206f70657261746f7220717565727920666f72206e6f6e657860008201527f697374656e7420746f6b656e0000000000000000000000000000000000000000602082015250565b6000612bbb602c83611e7a565b9150612bc682612b5f565b604082019050919050565b60006020820190508181036000830152612bea81612bae565b9050919050565b7f4552433732313a207472616e736665722066726f6d20696e636f72726563742060008201527f6f776e6572000000000000000000000000000000000000000000000000000000602082015250565b6000612c4d602583611e7a565b9150612c5882612bf1565b604082019050919050565b60006020820190508181036000830152612c7c81612c40565b9050919050565b7f4552433732313a207472616e7366657220746f20746865207a65726f2061646460008201527f7265737300000000000000000000000000000000000000000000000000000000602082015250565b6000612cdf602483611e7a565b9150612cea82612c83565b604082019050919050565b60006020820190508181036000830152612d0e81612cd2565b9050919050565b6000612d2082611f2a565b9150612d2b83611f2a565b9250827fffffffffffffffffffffffffffffffffffffffffffffffffffffffffffffffff03821115612d6057612d5f612909565b5b828201905092915050565b7f4552433732313a206d696e7420746f20746865207a65726f2061646472657373600082015250565b6000612da1602083611e7a565b9150612dac82612d6b565b602082019050919050565b60006020820190508181036000830152612dd081612d94565b9050919050565b7f4552433732313a20746f6b656e20616c7265616479206d696e74656400000000600082015250565b6000612e0d601c83611e7a565b9150612e1882612dd7565b602082019050919050565b60006020820190508181036000830152612e3c81612e00565b9050919050565b7f4e487b7100000000000000000000000000000000000000000000000000000000600052601260045260246000fd5b6000612e7d82611f2a565b9150612e8883611f2a565b925082612e9857612e97612e43565b5b828204905092915050565b7f4552433732313a20617070726f766520746f2063616c6c657200000000000000600082015250565b6000612ed9601983611e7a565b9150612ee482612ea3565b602082019050919050565b60006020820190508181036000830152612f0881612ecc565b9050919050565b7f4552433732313a207472616e7366657220746f206e6f6e20455243373231526560008201527f63656976657220696d706c656d656e7465720000000000000000000000000000602082015250565b6000612f6b603283611e7a565b9150612f7682612f0f565b604082019050919050565b60006020820190508181036000830152612f9a81612f5e565b9050919050565b6000612fac82611f2a565b91507fffffffffffffffffffffffffffffffffffffffffffffffffffffffffffffffff8203612fde57612fdd612909565b5b600182019050919050565b6000612ff482611f2a565b9150612fff83611f2a565b92508261300f5761300e612e43565b5b828206905092915050565b7f4e487b7100000000000000000000000000000000000000000000000000000000600052603260045260246000fd5b7f42554721205261726974792073686f756c64206e6f7420616c7265616479206260008201527f6520736574000000000000000000000000000000000000000000000000000000602082015250565b60006130a5602583611e7a565b91506130b082613049565b604082019050919050565b600060208201905081810360008301526130d481613098565b9050919050565b600081519050919050565b600082825260208201905092915050565b6000613102826130db565b61310c81856130e6565b935061311c818560208601611e8b565b61312581611ebe565b840191505092915050565b60006080820190506131456000830187611fbf565b6131526020830186611fbf565b61315f60408301856120a8565b818103606083015261317181846130f7565b905095945050505050565b60008151905061318b81611de0565b92915050565b6000602082840312156131a7576131a6611daa565b5b60006131b58482850161317c565b9150509291505056fea2646970667358221220fc9a0e87c5bc2cab4671bedcbd9733491975b75e3c61614453e16adf8629f9b564736f6c634300080f0033",
  "linkReferences": {},
  "deployedLinkReferences": {}
}