{
  "_format": "hh-sol-artifact-1",
  "contractName": "ChubbyGrubbies",
  "sourceName": "contracts/ChubbyGrubbies.sol",
  "abi": [
    {
      "inputs": [],
      "stateMutability": "nonpayable",
      "type": "constructor"
    },
    {
      "anonymous": false,
      "inputs": [
        {
          "indexed": true,
          "internalType": "address",
          "name": "owner",
          "type": "address"
        },
        {
          "indexed": true,
          "internalType": "address",
          "name": "approved",
          "type": "address"
        },
        {
          "indexed": true,
          "internalType": "uint256",
          "name": "tokenId",
          "type": "uint256"
        }
      ],
      "name": "Approval",
      "type": "event"
    },
    {
      "anonymous": false,
      "inputs": [
        {
          "indexed": true,
          "internalType": "address",
          "name": "owner",
          "type": "address"
        },
        {
          "indexed": true,
          "internalType": "address",
          "name": "operator",
          "type": "address"
        },
        {
          "indexed": false,
          "internalType": "bool",
          "name": "approved",
          "type": "bool"
        }
      ],
      "name": "ApprovalForAll",
      "type": "event"
    },
    {
      "anonymous": false,
      "inputs": [
        {
          "indexed": false,
          "internalType": "address",
          "name": "owner",
          "type": "address"
        },
        {
          "indexed": false,
          "internalType": "uint256",
          "name": "tokenId",
          "type": "uint256"
        }
      ],
      "name": "SeedPlanted",
      "type": "event"
    },
    {
      "anonymous": false,
      "inputs": [
        {
          "indexed": true,
          "internalType": "address",
          "name": "from",
          "type": "address"
        },
        {
          "indexed": true,
          "internalType": "address",
          "name": "to",
          "type": "address"
        },
        {
          "indexed": true,
          "internalType": "uint256",
          "name": "tokenId",
          "type": "uint256"
        }
      ],
      "name": "Transfer",
      "type": "event"
    },
    {
      "anonymous": false,
      "inputs": [
        {
          "indexed": false,
          "internalType": "uint256",
          "name": "tokenId",
          "type": "uint256"
        },
        {
          "indexed": false,
          "internalType": "uint256",
          "name": "rarity",
          "type": "uint256"
        },
        {
          "indexed": false,
          "internalType": "uint256",
          "name": "size",
          "type": "uint256"
        },
        {
          "components": [
            {
              "internalType": "uint256",
              "name": "begin",
              "type": "uint256"
            },
            {
              "internalType": "address",
              "name": "owner",
              "type": "address"
            }
          ],
          "indexed": false,
          "internalType": "struct ChubbyGrubbies.Owner[]",
          "name": "owners",
          "type": "tuple[]"
        }
      ],
      "name": "TreeChange",
      "type": "event"
    },
    {
      "inputs": [
        {
          "internalType": "address",
          "name": "to",
          "type": "address"
        },
        {
          "internalType": "uint256",
          "name": "tokenId",
          "type": "uint256"
        }
      ],
      "name": "approve",
      "outputs": [],
      "stateMutability": "nonpayable",
      "type": "function"
    },
    {
      "inputs": [
        {
          "internalType": "address",
          "name": "owner",
          "type": "address"
        }
      ],
      "name": "balanceOf",
      "outputs": [
        {
          "internalType": "uint256",
          "name": "",
          "type": "uint256"
        }
      ],
      "stateMutability": "view",
      "type": "function"
    },
    {
      "inputs": [
        {
          "internalType": "uint256",
          "name": "tokenId",
          "type": "uint256"
        }
      ],
      "name": "getApproved",
      "outputs": [
        {
          "internalType": "address",
          "name": "",
          "type": "address"
        }
      ],
      "stateMutability": "view",
      "type": "function"
    },
    {
      "inputs": [],
      "name": "getCurrentMintCost",
      "outputs": [
        {
          "internalType": "uint256",
          "name": "",
          "type": "uint256"
        }
      ],
      "stateMutability": "view",
      "type": "function"
    },
    {
      "inputs": [
        {
          "internalType": "uint256",
          "name": "tokenId",
          "type": "uint256"
        }
      ],
      "name": "getTreeDisplay",
      "outputs": [
        {
          "components": [
            {
              "internalType": "uint256",
              "name": "rarity",
              "type": "uint256"
            },
            {
              "internalType": "uint256",
              "name": "size",
              "type": "uint256"
            },
            {
              "components": [
                {
                  "internalType": "uint256",
                  "name": "begin",
                  "type": "uint256"
                },
                {
                  "internalType": "address",
                  "name": "owner",
                  "type": "address"
                }
              ],
              "internalType": "struct ChubbyGrubbies.Owner[]",
              "name": "owners",
              "type": "tuple[]"
            },
            {
              "internalType": "string",
              "name": "ipfsHash",
              "type": "string"
            }
          ],
          "internalType": "struct ChubbyGrubbies.TreeDisplay",
          "name": "",
          "type": "tuple"
        }
      ],
      "stateMutability": "view",
      "type": "function"
    },
    {
      "inputs": [
        {
          "internalType": "uint256",
          "name": "tokenId",
          "type": "uint256"
        }
      ],
      "name": "growTree",
      "outputs": [],
      "stateMutability": "payable",
      "type": "function"
    },
    {
      "inputs": [
        {
          "internalType": "address",
          "name": "owner",
          "type": "address"
        },
        {
          "internalType": "address",
          "name": "operator",
          "type": "address"
        }
      ],
      "name": "isApprovedForAll",
      "outputs": [
        {
          "internalType": "bool",
          "name": "",
          "type": "bool"
        }
      ],
      "stateMutability": "view",
      "type": "function"
    },
    {
      "inputs": [
        {
          "internalType": "uint256",
          "name": "tokenId",
          "type": "uint256"
        }
      ],
      "name": "isSprouted",
      "outputs": [
        {
          "internalType": "bool",
          "name": "",
          "type": "bool"
        }
      ],
      "stateMutability": "view",
      "type": "function"
    },
    {
      "inputs": [
        {
          "internalType": "uint256",
          "name": "tokenId",
          "type": "uint256"
        }
      ],
      "name": "isTree",
      "outputs": [
        {
          "internalType": "bool",
          "name": "",
          "type": "bool"
        }
      ],
      "stateMutability": "view",
      "type": "function"
    },
    {
      "inputs": [],
      "name": "name",
      "outputs": [
        {
          "internalType": "string",
          "name": "",
          "type": "string"
        }
      ],
      "stateMutability": "view",
      "type": "function"
    },
    {
      "inputs": [
        {
          "internalType": "uint256",
          "name": "tokenId",
          "type": "uint256"
        }
      ],
      "name": "ownerOf",
      "outputs": [
        {
          "internalType": "address",
          "name": "",
          "type": "address"
        }
      ],
      "stateMutability": "view",
      "type": "function"
    },
    {
      "inputs": [],
      "name": "plantSeed",
      "outputs": [],
      "stateMutability": "payable",
      "type": "function"
    },
    {
      "inputs": [
        {
          "internalType": "address",
          "name": "from",
          "type": "address"
        },
        {
          "internalType": "address",
          "name": "to",
          "type": "address"
        },
        {
          "internalType": "uint256",
          "name": "tokenId",
          "type": "uint256"
        }
      ],
      "name": "safeTransferFrom",
      "outputs": [],
      "stateMutability": "nonpayable",
      "type": "function"
    },
    {
      "inputs": [
        {
          "internalType": "address",
          "name": "from",
          "type": "address"
        },
        {
          "internalType": "address",
          "name": "to",
          "type": "address"
        },
        {
          "internalType": "uint256",
          "name": "tokenId",
          "type": "uint256"
        },
        {
          "internalType": "bytes",
          "name": "_data",
          "type": "bytes"
        }
      ],
      "name": "safeTransferFrom",
      "outputs": [],
      "stateMutability": "nonpayable",
      "type": "function"
    },
    {
      "inputs": [
        {
          "internalType": "address",
          "name": "operator",
          "type": "address"
        },
        {
          "internalType": "bool",
          "name": "approved",
          "type": "bool"
        }
      ],
      "name": "setApprovalForAll",
      "outputs": [],
      "stateMutability": "nonpayable",
      "type": "function"
    },
    {
      "inputs": [
        {
          "internalType": "uint256",
          "name": "tokenId",
          "type": "uint256"
        },
        {
          "internalType": "string",
          "name": "ipfsHash",
          "type": "string"
        }
      ],
      "name": "setIpfsHash",
      "outputs": [],
      "stateMutability": "nonpayable",
      "type": "function"
    },
    {
      "inputs": [
        {
          "internalType": "bytes4",
          "name": "interfaceId",
          "type": "bytes4"
        }
      ],
      "name": "supportsInterface",
      "outputs": [
        {
          "internalType": "bool",
          "name": "",
          "type": "bool"
        }
      ],
      "stateMutability": "view",
      "type": "function"
    },
    {
      "inputs": [],
      "name": "symbol",
      "outputs": [
        {
          "internalType": "string",
          "name": "",
          "type": "string"
        }
      ],
      "stateMutability": "view",
      "type": "function"
    },
    {
      "inputs": [
        {
          "internalType": "uint256",
          "name": "tokenId",
          "type": "uint256"
        }
      ],
      "name": "tokenURI",
      "outputs": [
        {
          "internalType": "string",
          "name": "",
          "type": "string"
        }
      ],
      "stateMutability": "view",
      "type": "function"
    },
    {
      "inputs": [
        {
          "internalType": "address",
          "name": "from",
          "type": "address"
        },
        {
          "internalType": "address",
          "name": "to",
          "type": "address"
        },
        {
          "internalType": "uint256",
          "name": "tokenId",
          "type": "uint256"
        }
      ],
      "name": "transferFrom",
      "outputs": [],
      "stateMutability": "nonpayable",
      "type": "function"
    }
  ],
  "bytecode": "0x608060405266038d7ea4c6800060065566038d7ea4c68000600755600160085573c4d78162471cffd293850c6ed4fd618240a75f1b600960006101000a81548173ffffffffffffffffffffffffffffffffffffffff021916908373ffffffffffffffffffffffffffffffffffffffff1602179055506040518060600160405280602e81526020016200403d602e9139600a90816200009e9190620003ea565b506040518060600160405280602e81526020016200406b602e9139600b9081620000c99190620003ea565b50348015620000d757600080fd5b506040518060400160405280600e81526020017f43687562627947727562626965730000000000000000000000000000000000008152506040518060400160405280600681526020017f43485542425900000000000000000000000000000000000000000000000000008152508160009081620001559190620003ea565b508060019081620001679190620003ea565b505050620004d1565b600081519050919050565b7f4e487b7100000000000000000000000000000000000000000000000000000000600052604160045260246000fd5b7f4e487b7100000000000000000000000000000000000000000000000000000000600052602260045260246000fd5b60006002820490506001821680620001f257607f821691505b602082108103620002085762000207620001aa565b5b50919050565b60008190508160005260206000209050919050565b60006020601f8301049050919050565b600082821b905092915050565b600060088302620002727fffffffffffffffffffffffffffffffffffffffffffffffffffffffffffffffff8262000233565b6200027e868362000233565b95508019841693508086168417925050509392505050565b6000819050919050565b6000819050919050565b6000620002cb620002c5620002bf8462000296565b620002a0565b62000296565b9050919050565b6000819050919050565b620002e783620002aa565b620002ff620002f682620002d2565b84845462000240565b825550505050565b600090565b6200031662000307565b62000323818484620002dc565b505050565b5b818110156200034b576200033f6000826200030c565b60018101905062000329565b5050565b601f8211156200039a5762000364816200020e565b6200036f8462000223565b810160208510156200037f578190505b620003976200038e8562000223565b83018262000328565b50505b505050565b600082821c905092915050565b6000620003bf600019846008026200039f565b1980831691505092915050565b6000620003da8383620003ac565b9150826002028217905092915050565b620003f58262000170565b67ffffffffffffffff8111156200041157620004106200017b565b5b6200041d8254620001d9565b6200042a8282856200034f565b600060209050601f8311600181146200046257600084156200044d578287015190505b620004598582620003cc565b865550620004c9565b601f19841662000472866200020e565b60005b828110156200049c5784890151825560018201915060208501945060208101905062000475565b86831015620004bc5784890151620004b8601f891682620003ac565b8355505b6001600288020188555050505b505050505050565b613b5c80620004e16000396000f3fe60806040526004361061011f5760003560e01c806374119a38116100a0578063b88d4fde11610064578063b88d4fde146103c9578063c3810fa5146103f2578063c87b56dd1461042f578063e985e9c51461046c578063f6255760146104a95761011f565b806374119a38146103125780637ca58c911461031c57806395d89b4114610338578063a22cb46514610363578063aa67c2441461038c5761011f565b806323b872dd116100e757806323b872dd1461021b57806342842e0e146102445780636352211e1461026d5780636f609633146102aa57806370a08231146102d55761011f565b806301ffc9a7146101245780630385c0de1461016157806306fdde031461018a578063081812fc146101b5578063095ea7b3146101f2575b600080fd5b34801561013057600080fd5b5061014b6004803603810190610146919061208a565b6104e6565b60405161015891906120d2565b60405180910390f35b34801561016d57600080fd5b5061018860048036038101906101839190612188565b6105c8565b005b34801561019657600080fd5b5061019f610692565b6040516101ac9190612281565b60405180910390f35b3480156101c157600080fd5b506101dc60048036038101906101d791906122a3565b610724565b6040516101e99190612311565b60405180910390f35b3480156101fe57600080fd5b5061021960048036038101906102149190612358565b6107a9565b005b34801561022757600080fd5b50610242600480360381019061023d9190612398565b6108c0565b005b34801561025057600080fd5b5061026b60048036038101906102669190612398565b610920565b005b34801561027957600080fd5b50610294600480360381019061028f91906122a3565b610940565b6040516102a19190612311565b60405180910390f35b3480156102b657600080fd5b506102bf6109f1565b6040516102cc91906123fa565b60405180910390f35b3480156102e157600080fd5b506102fc60048036038101906102f79190612415565b6109fb565b60405161030991906123fa565b60405180910390f35b61031a610ab2565b005b610336600480360381019061033191906122a3565b610ba6565b005b34801561034457600080fd5b5061034d610c69565b60405161035a9190612281565b60405180910390f35b34801561036f57600080fd5b5061038a6004803603810190610385919061246e565b610cfb565b005b34801561039857600080fd5b506103b360048036038101906103ae91906122a3565b610d11565b6040516103c0919061265e565b60405180910390f35b3480156103d557600080fd5b506103f060048036038101906103eb91906127b0565b610f12565b005b3480156103fe57600080fd5b50610419600480360381019061041491906122a3565b610f74565b60405161042691906120d2565b60405180910390f35b34801561043b57600080fd5b50610456600480360381019061045191906122a3565b610f8a565b6040516104639190612281565b60405180910390f35b34801561047857600080fd5b50610493600480360381019061048e9190612833565b611031565b6040516104a091906120d2565b60405180910390f35b3480156104b557600080fd5b506104d060048036038101906104cb91906122a3565b6110c5565b6040516104dd91906120d2565b60405180910390f35b60007f80ac58cd000000000000000000000000000000000000000000000000000000007bffffffffffffffffffffffffffffffffffffffffffffffffffffffff1916827bffffffffffffffffffffffffffffffffffffffffffffffffffffffff191614806105b157507f5b5e139f000000000000000000000000000000000000000000000000000000007bffffffffffffffffffffffffffffffffffffffffffffffffffffffff1916827bffffffffffffffffffffffffffffffffffffffffffffffffffffffff1916145b806105c157506105c0826110e5565b5b9050919050565b600960009054906101000a900473ffffffffffffffffffffffffffffffffffffffff1673ffffffffffffffffffffffffffffffffffffffff163373ffffffffffffffffffffffffffffffffffffffff161461062257600080fd5b61062b83610f74565b61066a576040517f08c379a0000000000000000000000000000000000000000000000000000000008152600401610661906128bf565b60405180910390fd5b818160106000868152602001908152602001600020918261068c929190612af6565b50505050565b6060600080546106a190612919565b80601f01602080910402602001604051908101604052809291908181526020018280546106cd90612919565b801561071a5780601f106106ef5761010080835404028352916020019161071a565b820191906000526020600020905b8154815290600101906020018083116106fd57829003601f168201915b5050505050905090565b600061072f8261114f565b61076e576040517f08c379a000000000000000000000000000000000000000000000000000000000815260040161076590612c38565b60405180910390fd5b6004600083815260200190815260200160002060009054906101000a900473ffffffffffffffffffffffffffffffffffffffff169050919050565b60006107b482610940565b90508073ffffffffffffffffffffffffffffffffffffffff168373ffffffffffffffffffffffffffffffffffffffff1603610824576040517f08c379a000000000000000000000000000000000000000000000000000000000815260040161081b90612cca565b60405180910390fd5b8073ffffffffffffffffffffffffffffffffffffffff166108436111bb565b73ffffffffffffffffffffffffffffffffffffffff16148061087257506108718161086c6111bb565b611031565b5b6108b1576040517f08c379a00000000000000000000000000000000000000000000000000000000081526004016108a890612d5c565b60405180910390fd5b6108bb83836111c3565b505050565b6108d16108cb6111bb565b8261127c565b610910576040517f08c379a000000000000000000000000000000000000000000000000000000000815260040161090790612dee565b60405180910390fd5b61091b83838361135a565b505050565b61093b83838360405180602001604052806000815250610f12565b505050565b6000806002600084815260200190815260200160002060009054906101000a900473ffffffffffffffffffffffffffffffffffffffff169050600073ffffffffffffffffffffffffffffffffffffffff168173ffffffffffffffffffffffffffffffffffffffff16036109e8576040517f08c379a00000000000000000000000000000000000000000000000000000000081526004016109df90612e80565b60405180910390fd5b80915050919050565b6000600654905090565b60008073ffffffffffffffffffffffffffffffffffffffff168273ffffffffffffffffffffffffffffffffffffffff1603610a6b576040517f08c379a0000000000000000000000000000000000000000000000000000000008152600401610a6290612f12565b60405180910390fd5b600360008373ffffffffffffffffffffffffffffffffffffffff1673ffffffffffffffffffffffffffffffffffffffff168152602001908152602001600020549050919050565b6000610abc6109f1565b905080341015610b01576040517f08c379a0000000000000000000000000000000000000000000000000000000008152600401610af890612f7e565b60405180910390fd5b610b0b600c6115c0565b60003390506000610b1c600c6115d6565b9050610b2882826115e4565b600b601060008381526020019081526020016000209081610b499190612fc9565b50610b5f818434610b5a91906130e0565b6117bd565b7f747d8837f4c4a679877b5b9ac39bdf2d007b0848be9a28debd8c94eee499800a8282604051610b90929190613114565b60405180910390a1610ba181611880565b505050565b610baf81610f74565b610bee576040517f08c379a0000000000000000000000000000000000000000000000000000000008152600401610be5906128bf565b60405180910390fd5b60003411610c31576040517f08c379a0000000000000000000000000000000000000000000000000000000008152600401610c2890613189565b60405180910390fd5b610c3b81346117bd565b600a601060008381526020019081526020016000209081610c5c9190612fc9565b50610c6681611880565b50565b606060018054610c7890612919565b80601f0160208091040260200160405190810160405280929190818152602001828054610ca490612919565b8015610cf15780601f10610cc657610100808354040283529160200191610cf1565b820191906000526020600020905b815481529060010190602001808311610cd457829003601f168201915b5050505050905090565b610d0d610d066111bb565b83836118f8565b5050565b610d19611ff6565b610d2282610f74565b610d61576040517f08c379a0000000000000000000000000000000000000000000000000000000008152600401610d58906128bf565b60405180910390fd5b6040518060800160405280600e6000858152602001908152602001600020548152602001600d6000858152602001908152602001600020548152602001600f6000858152602001908152602001600020805480602002602001604051908101604052809291908181526020016000905b82821015610e635783829060005260206000209060020201604051806040016040529081600082015481526020016001820160009054906101000a900473ffffffffffffffffffffffffffffffffffffffff1673ffffffffffffffffffffffffffffffffffffffff1673ffffffffffffffffffffffffffffffffffffffff168152505081526020019060010190610dd1565b505050508152602001601060008581526020019081526020016000208054610e8a90612919565b80601f0160208091040260200160405190810160405280929190818152602001828054610eb690612919565b8015610f035780601f10610ed857610100808354040283529160200191610f03565b820191906000526020600020905b815481529060010190602001808311610ee657829003601f168201915b50505050508152509050919050565b610f23610f1d6111bb565b8361127c565b610f62576040517f08c379a0000000000000000000000000000000000000000000000000000000008152600401610f5990612dee565b60405180910390fd5b610f6e84848484611a64565b50505050565b6000610f80600c6115d6565b8211159050919050565b6060610f958261114f565b610fd4576040517f08c379a0000000000000000000000000000000000000000000000000000000008152600401610fcb9061321b565b60405180910390fd5b6000610fde611ac0565b90506000815111610ffe5760405180602001604052806000815250611029565b8061100884611ae0565b604051602001611019929190613277565b6040516020818303038152906040525b915050919050565b6000600560008473ffffffffffffffffffffffffffffffffffffffff1673ffffffffffffffffffffffffffffffffffffffff16815260200190815260200160002060008373ffffffffffffffffffffffffffffffffffffffff1673ffffffffffffffffffffffffffffffffffffffff16815260200190815260200160002060009054906101000a900460ff16905092915050565b600080600e60008481526020019081526020016000205414159050919050565b60007f01ffc9a7000000000000000000000000000000000000000000000000000000007bffffffffffffffffffffffffffffffffffffffffffffffffffffffff1916827bffffffffffffffffffffffffffffffffffffffffffffffffffffffff1916149050919050565b60008073ffffffffffffffffffffffffffffffffffffffff166002600084815260200190815260200160002060009054906101000a900473ffffffffffffffffffffffffffffffffffffffff1673ffffffffffffffffffffffffffffffffffffffff1614159050919050565b600033905090565b816004600083815260200190815260200160002060006101000a81548173ffffffffffffffffffffffffffffffffffffffff021916908373ffffffffffffffffffffffffffffffffffffffff160217905550808273ffffffffffffffffffffffffffffffffffffffff1661123683610940565b73ffffffffffffffffffffffffffffffffffffffff167f8c5be1e5ebec7d5bd14f71427d1e84f3dd0314c0f7b2291e5b200ac8c7c3b92560405160405180910390a45050565b60006112878261114f565b6112c6576040517f08c379a00000000000000000000000000000000000000000000000000000000081526004016112bd9061330d565b60405180910390fd5b60006112d183610940565b90508073ffffffffffffffffffffffffffffffffffffffff168473ffffffffffffffffffffffffffffffffffffffff16148061131357506113128185611031565b5b8061135157508373ffffffffffffffffffffffffffffffffffffffff1661133984610724565b73ffffffffffffffffffffffffffffffffffffffff16145b91505092915050565b8273ffffffffffffffffffffffffffffffffffffffff1661137a82610940565b73ffffffffffffffffffffffffffffffffffffffff16146113d0576040517f08c379a00000000000000000000000000000000000000000000000000000000081526004016113c79061339f565b60405180910390fd5b600073ffffffffffffffffffffffffffffffffffffffff168273ffffffffffffffffffffffffffffffffffffffff160361143f576040517f08c379a000000000000000000000000000000000000000000000000000000000815260040161143690613431565b60405180910390fd5b61144a838383611c40565b6114556000826111c3565b6001600360008573ffffffffffffffffffffffffffffffffffffffff1673ffffffffffffffffffffffffffffffffffffffff16815260200190815260200160002060008282546114a591906130e0565b925050819055506001600360008473ffffffffffffffffffffffffffffffffffffffff1673ffffffffffffffffffffffffffffffffffffffff16815260200190815260200160002060008282546114fc9190613451565b92505081905550816002600083815260200190815260200160002060006101000a81548173ffffffffffffffffffffffffffffffffffffffff021916908373ffffffffffffffffffffffffffffffffffffffff160217905550808273ffffffffffffffffffffffffffffffffffffffff168473ffffffffffffffffffffffffffffffffffffffff167fddf252ad1be2c89b69c2b068fc378daa952ba7f163c4a11628f55a4df523b3ef60405160405180910390a46115bb838383611c45565b505050565b6001816000016000828254019250508190555050565b600081600001549050919050565b600073ffffffffffffffffffffffffffffffffffffffff168273ffffffffffffffffffffffffffffffffffffffff1603611653576040517f08c379a000000000000000000000000000000000000000000000000000000000815260040161164a906134f3565b60405180910390fd5b61165c8161114f565b1561169c576040517f08c379a00000000000000000000000000000000000000000000000000000000081526004016116939061355f565b60405180910390fd5b6116a860008383611c40565b6001600360008473ffffffffffffffffffffffffffffffffffffffff1673ffffffffffffffffffffffffffffffffffffffff16815260200190815260200160002060008282546116f89190613451565b92505081905550816002600083815260200190815260200160002060006101000a81548173ffffffffffffffffffffffffffffffffffffffff021916908373ffffffffffffffffffffffffffffffffffffffff160217905550808273ffffffffffffffffffffffffffffffffffffffff16600073ffffffffffffffffffffffffffffffffffffffff167fddf252ad1be2c89b69c2b068fc378daa952ba7f163c4a11628f55a4df523b3ef60405160405180910390a46117b960008383611c45565b5050565b6117c682610f74565b611805576040517f08c379a00000000000000000000000000000000000000000000000000000000081526004016117fc906128bf565b60405180910390fd5b60006007548261181591906135ae565b905080600d6000858152602001908152602001600020600082825461183a9190613451565b9250508190555061184a836110c5565b15801561186c5750600854600d60008581526020019081526020016000205410155b1561187b5761187a83611d04565b5b505050565b7fc0b64981d2dfc46853bdf0b279971f83e0694e34ea08f5ea436d6365df9e530d81600e600084815260200190815260200160002054600d600085815260200190815260200160002054600f60008681526020019081526020016000206040516118ed9493929190613744565b60405180910390a150565b8173ffffffffffffffffffffffffffffffffffffffff168373ffffffffffffffffffffffffffffffffffffffff1603611966576040517f08c379a000000000000000000000000000000000000000000000000000000000815260040161195d906137dc565b60405180910390fd5b80600560008573ffffffffffffffffffffffffffffffffffffffff1673ffffffffffffffffffffffffffffffffffffffff16815260200190815260200160002060008473ffffffffffffffffffffffffffffffffffffffff1673ffffffffffffffffffffffffffffffffffffffff16815260200190815260200160002060006101000a81548160ff0219169083151502179055508173ffffffffffffffffffffffffffffffffffffffff168373ffffffffffffffffffffffffffffffffffffffff167f17307eab39ab6107e8899845ad3d59bd9653f200f220920489ca2b5937696c3183604051611a5791906120d2565b60405180910390a3505050565b611a6f84848461135a565b611a7b84848484611dbd565b611aba576040517f08c379a0000000000000000000000000000000000000000000000000000000008152600401611ab19061386e565b60405180910390fd5b50505050565b6060604051806060016040528060218152602001613b0660219139905090565b606060008203611b27576040518060400160405280600181526020017f30000000000000000000000000000000000000000000000000000000000000008152509050611c3b565b600082905060005b60008214611b59578080611b429061388e565b915050600a82611b5291906135ae565b9150611b2f565b60008167ffffffffffffffff811115611b7557611b74612685565b5b6040519080825280601f01601f191660200182016040528015611ba75781602001600182028036833780820191505090505b5090505b60008514611c3457600182611bc091906130e0565b9150600a85611bcf91906138d6565b6030611bdb9190613451565b60f81b818381518110611bf157611bf0613907565b5b60200101907effffffffffffffffffffffffffffffffffffffffffffffffffffffffffffff1916908160001a905350600a85611c2d91906135ae565b9450611bab565b8093505050505b919050565b505050565b600f600082815260200190815260200160002060405180604001604052804281526020018473ffffffffffffffffffffffffffffffffffffffff1681525090806001815401808255809150506001900390600052602060002090600202016000909190919091506000820151816000015560208201518160010160006101000a81548173ffffffffffffffffffffffffffffffffffffffff021916908373ffffffffffffffffffffffffffffffffffffffff1602179055505050505050565b611d0d816110c5565b15611d4d576040517f08c379a0000000000000000000000000000000000000000000000000000000008152600401611d44906139a8565b60405180910390fd5b611d5681610f74565b611d95576040517f08c379a0000000000000000000000000000000000000000000000000000000008152600401611d8c906128bf565b60405180910390fd5b6000611d9f611f44565b905080600e6000848152602001908152602001600020819055505050565b6000611dde8473ffffffffffffffffffffffffffffffffffffffff16611fd3565b15611f37578373ffffffffffffffffffffffffffffffffffffffff1663150b7a02611e076111bb565b8786866040518563ffffffff1660e01b8152600401611e299493929190613a1d565b6020604051808303816000875af1925050508015611e6557506040513d601f19601f82011682018060405250810190611e629190613a7e565b60015b611ee7573d8060008114611e95576040519150601f19603f3d011682016040523d82523d6000602084013e611e9a565b606091505b506000815103611edf576040517f08c379a0000000000000000000000000000000000000000000000000000000008152600401611ed69061386e565b60405180910390fd5b805181602001fd5b63150b7a0260e01b7bffffffffffffffffffffffffffffffffffffffffffffffffffffffff1916817bffffffffffffffffffffffffffffffffffffffffffffffffffffffff191614915050611f3c565b600190505b949350505050565b600080600f6007611f55600c6115d6565b611f5f9190613aab565b434442611f6c9190613451565b611f769190613451565b611f809190613451565b611f8a91906138d6565b905060006008821015611fa05760019050611fcb565b600c821015611fb25760029050611fca565b600e821015611fc45760039050611fc9565b600490505b5b5b809250505090565b6000808273ffffffffffffffffffffffffffffffffffffffff163b119050919050565b6040518060800160405280600081526020016000815260200160608152602001606081525090565b6000604051905090565b600080fd5b600080fd5b60007fffffffff0000000000000000000000000000000000000000000000000000000082169050919050565b61206781612032565b811461207257600080fd5b50565b6000813590506120848161205e565b92915050565b6000602082840312156120a05761209f612028565b5b60006120ae84828501612075565b91505092915050565b60008115159050919050565b6120cc816120b7565b82525050565b60006020820190506120e760008301846120c3565b92915050565b6000819050919050565b612100816120ed565b811461210b57600080fd5b50565b60008135905061211d816120f7565b92915050565b600080fd5b600080fd5b600080fd5b60008083601f84011261214857612147612123565b5b8235905067ffffffffffffffff81111561216557612164612128565b5b6020830191508360018202830111156121815761218061212d565b5b9250929050565b6000806000604084860312156121a1576121a0612028565b5b60006121af8682870161210e565b935050602084013567ffffffffffffffff8111156121d0576121cf61202d565b5b6121dc86828701612132565b92509250509250925092565b600081519050919050565b600082825260208201905092915050565b60005b83811015612222578082015181840152602081019050612207565b83811115612231576000848401525b50505050565b6000601f19601f8301169050919050565b6000612253826121e8565b61225d81856121f3565b935061226d818560208601612204565b61227681612237565b840191505092915050565b6000602082019050818103600083015261229b8184612248565b905092915050565b6000602082840312156122b9576122b8612028565b5b60006122c78482850161210e565b91505092915050565b600073ffffffffffffffffffffffffffffffffffffffff82169050919050565b60006122fb826122d0565b9050919050565b61230b816122f0565b82525050565b60006020820190506123266000830184612302565b92915050565b612335816122f0565b811461234057600080fd5b50565b6000813590506123528161232c565b92915050565b6000806040838503121561236f5761236e612028565b5b600061237d85828601612343565b925050602061238e8582860161210e565b9150509250929050565b6000806000606084860312156123b1576123b0612028565b5b60006123bf86828701612343565b93505060206123d086828701612343565b92505060406123e18682870161210e565b9150509250925092565b6123f4816120ed565b82525050565b600060208201905061240f60008301846123eb565b92915050565b60006020828403121561242b5761242a612028565b5b600061243984828501612343565b91505092915050565b61244b816120b7565b811461245657600080fd5b50565b60008135905061246881612442565b92915050565b6000806040838503121561248557612484612028565b5b600061249385828601612343565b92505060206124a485828601612459565b9150509250929050565b6124b7816120ed565b82525050565b600081519050919050565b600082825260208201905092915050565b6000819050602082019050919050565b6124f2816122f0565b82525050565b60408201600082015161250e60008501826124ae565b50602082015161252160208501826124e9565b50505050565b600061253383836124f8565b60408301905092915050565b6000602082019050919050565b6000612557826124bd565b61256181856124c8565b935061256c836124d9565b8060005b8381101561259d5781516125848882612527565b975061258f8361253f565b925050600181019050612570565b5085935050505092915050565b600082825260208201905092915050565b60006125c6826121e8565b6125d081856125aa565b93506125e0818560208601612204565b6125e981612237565b840191505092915050565b600060808301600083015161260c60008601826124ae565b50602083015161261f60208601826124ae565b5060408301518482036040860152612637828261254c565b9150506060830151848203606086015261265182826125bb565b9150508091505092915050565b6000602082019050818103600083015261267881846125f4565b905092915050565b600080fd5b7f4e487b7100000000000000000000000000000000000000000000000000000000600052604160045260246000fd5b6126bd82612237565b810181811067ffffffffffffffff821117156126dc576126db612685565b5b80604052505050565b60006126ef61201e565b90506126fb82826126b4565b919050565b600067ffffffffffffffff82111561271b5761271a612685565b5b61272482612237565b9050602081019050919050565b82818337600083830152505050565b600061275361274e84612700565b6126e5565b90508281526020810184848401111561276f5761276e612680565b5b61277a848285612731565b509392505050565b600082601f83011261279757612796612123565b5b81356127a7848260208601612740565b91505092915050565b600080600080608085870312156127ca576127c9612028565b5b60006127d887828801612343565b94505060206127e987828801612343565b93505060406127fa8782880161210e565b925050606085013567ffffffffffffffff81111561281b5761281a61202d565b5b61282787828801612782565b91505092959194509250565b6000806040838503121561284a57612849612028565b5b600061285885828601612343565b925050602061286985828601612343565b9150509250929050565b7f496e76616c696420746f6b656e20494400000000000000000000000000000000600082015250565b60006128a96010836121f3565b91506128b482612873565b602082019050919050565b600060208201905081810360008301526128d88161289c565b9050919050565b600082905092915050565b7f4e487b7100000000000000000000000000000000000000000000000000000000600052602260045260246000fd5b6000600282049050600182168061293157607f821691505b602082108103612944576129436128ea565b5b50919050565b60008190508160005260206000209050919050565b60006020601f8301049050919050565b600082821b905092915050565b6000600883026129ac7fffffffffffffffffffffffffffffffffffffffffffffffffffffffffffffffff8261296f565b6129b6868361296f565b95508019841693508086168417925050509392505050565b6000819050919050565b60006129f36129ee6129e9846120ed565b6129ce565b6120ed565b9050919050565b6000819050919050565b612a0d836129d8565b612a21612a19826129fa565b84845461297c565b825550505050565b600090565b612a36612a29565b612a41818484612a04565b505050565b5b81811015612a6557612a5a600082612a2e565b600181019050612a47565b5050565b601f821115612aaa57612a7b8161294a565b612a848461295f565b81016020851015612a93578190505b612aa7612a9f8561295f565b830182612a46565b50505b505050565b600082821c905092915050565b6000612acd60001984600802612aaf565b1980831691505092915050565b6000612ae68383612abc565b9150826002028217905092915050565b612b0083836128df565b67ffffffffffffffff811115612b1957612b18612685565b5b612b238254612919565b612b2e828285612a69565b6000601f831160018114612b5d5760008415612b4b578287013590505b612b558582612ada565b865550612bbd565b601f198416612b6b8661294a565b60005b82811015612b9357848901358255600182019150602085019450602081019050612b6e565b86831015612bb05784890135612bac601f891682612abc565b8355505b6001600288020188555050505b50505050505050565b7f4552433732313a20617070726f76656420717565727920666f72206e6f6e657860008201527f697374656e7420746f6b656e0000000000000000000000000000000000000000602082015250565b6000612c22602c836121f3565b9150612c2d82612bc6565b604082019050919050565b60006020820190508181036000830152612c5181612c15565b9050919050565b7f4552433732313a20617070726f76616c20746f2063757272656e74206f776e6560008201527f7200000000000000000000000000000000000000000000000000000000000000602082015250565b6000612cb46021836121f3565b9150612cbf82612c58565b604082019050919050565b60006020820190508181036000830152612ce381612ca7565b9050919050565b7f4552433732313a20617070726f76652063616c6c6572206973206e6f74206f7760008201527f6e6572206e6f7220617070726f76656420666f7220616c6c0000000000000000602082015250565b6000612d466038836121f3565b9150612d5182612cea565b604082019050919050565b60006020820190508181036000830152612d7581612d39565b9050919050565b7f4552433732313a207472616e736665722063616c6c6572206973206e6f74206f60008201527f776e6572206e6f7220617070726f766564000000000000000000000000000000602082015250565b6000612dd86031836121f3565b9150612de382612d7c565b604082019050919050565b60006020820190508181036000830152612e0781612dcb565b9050919050565b7f4552433732313a206f776e657220717565727920666f72206e6f6e657869737460008201527f656e7420746f6b656e0000000000000000000000000000000000000000000000602082015250565b6000612e6a6029836121f3565b9150612e7582612e0e565b604082019050919050565b60006020820190508181036000830152612e9981612e5d565b9050919050565b7f4552433732313a2062616c616e636520717565727920666f7220746865207a6560008201527f726f206164647265737300000000000000000000000000000000000000000000602082015250565b6000612efc602a836121f3565b9150612f0782612ea0565b604082019050919050565b60006020820190508181036000830152612f2b81612eef565b9050919050565b7f4d696e7420636f7374206e6f7420636f76657265640000000000000000000000600082015250565b6000612f686015836121f3565b9150612f7382612f32565b602082019050919050565b60006020820190508181036000830152612f9781612f5b565b9050919050565b600081549050612fad81612919565b9050919050565b60008190508160005260206000209050919050565b818103612fd75750506130af565b612fe082612f9e565b67ffffffffffffffff811115612ff957612ff8612685565b5b6130038254612919565b61300e828285612a69565b6000601f83116001811461303d576000841561302b578287015490505b6130358582612ada565b8655506130a8565b601f19841661304b87612fb4565b96506130568661294a565b60005b8281101561307e57848901548255600182019150600185019450602081019050613059565b8683101561309b5784890154613097601f891682612abc565b8355505b6001600288020188555050505b5050505050505b565b7f4e487b7100000000000000000000000000000000000000000000000000000000600052601160045260246000fd5b60006130eb826120ed565b91506130f6836120ed565b925082821015613109576131086130b1565b5b828203905092915050565b60006040820190506131296000830185612302565b61313660208301846123eb565b9392505050565b7f4d757374207370656e6420746f2067726f772074726565000000000000000000600082015250565b60006131736017836121f3565b915061317e8261313d565b602082019050919050565b600060208201905081810360008301526131a281613166565b9050919050565b7f4552433732314d657461646174613a2055524920717565727920666f72206e6f60008201527f6e6578697374656e7420746f6b656e0000000000000000000000000000000000602082015250565b6000613205602f836121f3565b9150613210826131a9565b604082019050919050565b60006020820190508181036000830152613234816131f8565b9050919050565b600081905092915050565b6000613251826121e8565b61325b818561323b565b935061326b818560208601612204565b80840191505092915050565b60006132838285613246565b915061328f8284613246565b91508190509392505050565b7f4552433732313a206f70657261746f7220717565727920666f72206e6f6e657860008201527f697374656e7420746f6b656e0000000000000000000000000000000000000000602082015250565b60006132f7602c836121f3565b91506133028261329b565b604082019050919050565b60006020820190508181036000830152613326816132ea565b9050919050565b7f4552433732313a207472616e736665722066726f6d20696e636f72726563742060008201527f6f776e6572000000000000000000000000000000000000000000000000000000602082015250565b60006133896025836121f3565b91506133948261332d565b604082019050919050565b600060208201905081810360008301526133b88161337c565b9050919050565b7f4552433732313a207472616e7366657220746f20746865207a65726f2061646460008201527f7265737300000000000000000000000000000000000000000000000000000000602082015250565b600061341b6024836121f3565b9150613426826133bf565b604082019050919050565b6000602082019050818103600083015261344a8161340e565b9050919050565b600061345c826120ed565b9150613467836120ed565b9250827fffffffffffffffffffffffffffffffffffffffffffffffffffffffffffffffff0382111561349c5761349b6130b1565b5b828201905092915050565b7f4552433732313a206d696e7420746f20746865207a65726f2061646472657373600082015250565b60006134dd6020836121f3565b91506134e8826134a7565b602082019050919050565b6000602082019050818103600083015261350c816134d0565b9050919050565b7f4552433732313a20746f6b656e20616c7265616479206d696e74656400000000600082015250565b6000613549601c836121f3565b915061355482613513565b602082019050919050565b600060208201905081810360008301526135788161353c565b9050919050565b7f4e487b7100000000000000000000000000000000000000000000000000000000600052601260045260246000fd5b60006135b9826120ed565b91506135c4836120ed565b9250826135d4576135d361357f565b5b828204905092915050565b600081549050919050565b600082825260208201905092915050565b60008190508160005260206000209050919050565b60008160001c9050919050565b6000819050919050565b600061363a61363583613610565b61361d565b9050919050565b600073ffffffffffffffffffffffffffffffffffffffff82169050919050565b600061367461366f83613610565b613641565b9050919050565b60408201600080830154905061369081613627565b61369d60008601826124ae565b50600183015490506136ae81613661565b6136bb60208601826124e9565b5050505050565b60006136ce838361367b565b60408301905092915050565b6000600282019050919050565b60006136f2826135df565b6136fc81856135ea565b9350613707836135fb565b8060005b83811015613737578161371e88826136c2565b9750613729836136da565b92505060018101905061370b565b5085935050505092915050565b600060808201905061375960008301876123eb565b61376660208301866123eb565b61377360408301856123eb565b818103606083015261378581846136e7565b905095945050505050565b7f4552433732313a20617070726f766520746f2063616c6c657200000000000000600082015250565b60006137c66019836121f3565b91506137d182613790565b602082019050919050565b600060208201905081810360008301526137f5816137b9565b9050919050565b7f4552433732313a207472616e7366657220746f206e6f6e20455243373231526560008201527f63656976657220696d706c656d656e7465720000000000000000000000000000602082015250565b60006138586032836121f3565b9150613863826137fc565b604082019050919050565b600060208201905081810360008301526138878161384b565b9050919050565b6000613899826120ed565b91507fffffffffffffffffffffffffffffffffffffffffffffffffffffffffffffffff82036138cb576138ca6130b1565b5b600182019050919050565b60006138e1826120ed565b91506138ec836120ed565b9250826138fc576138fb61357f565b5b828206905092915050565b7f4e487b7100000000000000000000000000000000000000000000000000000000600052603260045260246000fd5b7f42554721205261726974792073686f756c64206e6f7420616c7265616479206260008201527f6520736574000000000000000000000000000000000000000000000000000000602082015250565b60006139926025836121f3565b915061399d82613936565b604082019050919050565b600060208201905081810360008301526139c181613985565b9050919050565b600081519050919050565b600082825260208201905092915050565b60006139ef826139c8565b6139f981856139d3565b9350613a09818560208601612204565b613a1281612237565b840191505092915050565b6000608082019050613a326000830187612302565b613a3f6020830186612302565b613a4c60408301856123eb565b8181036060830152613a5e81846139e4565b905095945050505050565b600081519050613a788161205e565b92915050565b600060208284031215613a9457613a93612028565b5b6000613aa284828501613a69565b91505092915050565b6000613ab6826120ed565b9150613ac1836120ed565b9250817fffffffffffffffffffffffffffffffffffffffffffffffffffffffffffffffff0483118215151615613afa57613af96130b1565b5b82820290509291505056fe68747470733a2f2f64656d6f2e73746f726a2d697066732e636f6d2f697066732fa2646970667358221220d6cbc08bb6357f02fc1fca75841123d3a6905678d2cdda3f81beeb6ac98ea30164736f6c634300080f0033516d635a54534d554d764666744d717155424679356a567945586741476d5253743258384c71474c426335515055516d516f3274515a6151756a6f6450525951476d59464336756d4e6873457771457378346d5a70506e38754c6b63",
  "linkReferences": {},
  "deployedLinkReferences": {}
}