{
  "_format": "hh-sol-artifact-1",
  "contractName": "ChubbyGrubbies",
  "sourceName": "contracts/ChubbyGrubbies.sol",
  "abi": [
    {
      "inputs": [],
      "stateMutability": "nonpayable",
      "type": "constructor"
    },
    {
      "anonymous": false,
      "inputs": [
        {
          "indexed": true,
          "internalType": "address",
          "name": "owner",
          "type": "address"
        },
        {
          "indexed": true,
          "internalType": "address",
          "name": "approved",
          "type": "address"
        },
        {
          "indexed": true,
          "internalType": "uint256",
          "name": "tokenId",
          "type": "uint256"
        }
      ],
      "name": "Approval",
      "type": "event"
    },
    {
      "anonymous": false,
      "inputs": [
        {
          "indexed": true,
          "internalType": "address",
          "name": "owner",
          "type": "address"
        },
        {
          "indexed": true,
          "internalType": "address",
          "name": "operator",
          "type": "address"
        },
        {
          "indexed": false,
          "internalType": "bool",
          "name": "approved",
          "type": "bool"
        }
      ],
      "name": "ApprovalForAll",
      "type": "event"
    },
    {
      "anonymous": false,
      "inputs": [
        {
          "indexed": false,
          "internalType": "address",
          "name": "owner",
          "type": "address"
        },
        {
          "indexed": false,
          "internalType": "uint256",
          "name": "tokenId",
          "type": "uint256"
        }
      ],
      "name": "SeedPlanted",
      "type": "event"
    },
    {
      "anonymous": false,
      "inputs": [
        {
          "indexed": true,
          "internalType": "address",
          "name": "from",
          "type": "address"
        },
        {
          "indexed": true,
          "internalType": "address",
          "name": "to",
          "type": "address"
        },
        {
          "indexed": true,
          "internalType": "uint256",
          "name": "tokenId",
          "type": "uint256"
        }
      ],
      "name": "Transfer",
      "type": "event"
    },
    {
      "anonymous": false,
      "inputs": [
        {
          "indexed": false,
          "internalType": "uint256",
          "name": "tokenId",
          "type": "uint256"
        },
        {
          "indexed": false,
          "internalType": "uint256",
          "name": "rarity",
          "type": "uint256"
        },
        {
          "indexed": false,
          "internalType": "uint256",
          "name": "size",
          "type": "uint256"
        },
        {
          "components": [
            {
              "internalType": "uint256",
              "name": "begin",
              "type": "uint256"
            },
            {
              "internalType": "address",
              "name": "owner",
              "type": "address"
            }
          ],
          "indexed": false,
          "internalType": "struct ChubbyGrubbies.Owner[]",
          "name": "owners",
          "type": "tuple[]"
        }
      ],
      "name": "TreeChange",
      "type": "event"
    },
    {
      "inputs": [
        {
          "internalType": "address",
          "name": "to",
          "type": "address"
        },
        {
          "internalType": "uint256",
          "name": "tokenId",
          "type": "uint256"
        }
      ],
      "name": "approve",
      "outputs": [],
      "stateMutability": "nonpayable",
      "type": "function"
    },
    {
      "inputs": [
        {
          "internalType": "address",
          "name": "owner",
          "type": "address"
        }
      ],
      "name": "balanceOf",
      "outputs": [
        {
          "internalType": "uint256",
          "name": "",
          "type": "uint256"
        }
      ],
      "stateMutability": "view",
      "type": "function"
    },
    {
      "inputs": [
        {
          "internalType": "uint256",
          "name": "tokenId",
          "type": "uint256"
        }
      ],
      "name": "getApproved",
      "outputs": [
        {
          "internalType": "address",
          "name": "",
          "type": "address"
        }
      ],
      "stateMutability": "view",
      "type": "function"
    },
    {
      "inputs": [],
      "name": "getCurrentMintCost",
      "outputs": [
        {
          "internalType": "uint256",
          "name": "",
          "type": "uint256"
        }
      ],
      "stateMutability": "view",
      "type": "function"
    },
    {
      "inputs": [
        {
          "internalType": "uint256",
          "name": "tokenId",
          "type": "uint256"
        }
      ],
      "name": "getTreeDisplay",
      "outputs": [
        {
          "components": [
            {
              "internalType": "uint256",
              "name": "rarity",
              "type": "uint256"
            },
            {
              "internalType": "uint256",
              "name": "size",
              "type": "uint256"
            },
            {
              "components": [
                {
                  "internalType": "uint256",
                  "name": "begin",
                  "type": "uint256"
                },
                {
                  "internalType": "address",
                  "name": "owner",
                  "type": "address"
                }
              ],
              "internalType": "struct ChubbyGrubbies.Owner[]",
              "name": "owners",
              "type": "tuple[]"
            },
            {
              "internalType": "string",
              "name": "ipfsHash",
              "type": "string"
            }
          ],
          "internalType": "struct ChubbyGrubbies.TreeDisplay",
          "name": "",
          "type": "tuple"
        }
      ],
      "stateMutability": "view",
      "type": "function"
    },
    {
      "inputs": [
        {
          "internalType": "uint256",
          "name": "tokenId",
          "type": "uint256"
        }
      ],
      "name": "growTree",
      "outputs": [],
      "stateMutability": "payable",
      "type": "function"
    },
    {
      "inputs": [
        {
          "internalType": "address",
          "name": "owner",
          "type": "address"
        },
        {
          "internalType": "address",
          "name": "operator",
          "type": "address"
        }
      ],
      "name": "isApprovedForAll",
      "outputs": [
        {
          "internalType": "bool",
          "name": "",
          "type": "bool"
        }
      ],
      "stateMutability": "view",
      "type": "function"
    },
    {
      "inputs": [
        {
          "internalType": "uint256",
          "name": "tokenId",
          "type": "uint256"
        }
      ],
      "name": "isSprouted",
      "outputs": [
        {
          "internalType": "bool",
          "name": "",
          "type": "bool"
        }
      ],
      "stateMutability": "view",
      "type": "function"
    },
    {
      "inputs": [
        {
          "internalType": "uint256",
          "name": "tokenId",
          "type": "uint256"
        }
      ],
      "name": "isTree",
      "outputs": [
        {
          "internalType": "bool",
          "name": "",
          "type": "bool"
        }
      ],
      "stateMutability": "view",
      "type": "function"
    },
    {
      "inputs": [],
      "name": "name",
      "outputs": [
        {
          "internalType": "string",
          "name": "",
          "type": "string"
        }
      ],
      "stateMutability": "view",
      "type": "function"
    },
    {
      "inputs": [
        {
          "internalType": "uint256",
          "name": "tokenId",
          "type": "uint256"
        }
      ],
      "name": "ownerOf",
      "outputs": [
        {
          "internalType": "address",
          "name": "",
          "type": "address"
        }
      ],
      "stateMutability": "view",
      "type": "function"
    },
    {
      "inputs": [],
      "name": "plantSeed",
      "outputs": [],
      "stateMutability": "payable",
      "type": "function"
    },
    {
      "inputs": [
        {
          "internalType": "address",
          "name": "from",
          "type": "address"
        },
        {
          "internalType": "address",
          "name": "to",
          "type": "address"
        },
        {
          "internalType": "uint256",
          "name": "tokenId",
          "type": "uint256"
        }
      ],
      "name": "safeTransferFrom",
      "outputs": [],
      "stateMutability": "nonpayable",
      "type": "function"
    },
    {
      "inputs": [
        {
          "internalType": "address",
          "name": "from",
          "type": "address"
        },
        {
          "internalType": "address",
          "name": "to",
          "type": "address"
        },
        {
          "internalType": "uint256",
          "name": "tokenId",
          "type": "uint256"
        },
        {
          "internalType": "bytes",
          "name": "_data",
          "type": "bytes"
        }
      ],
      "name": "safeTransferFrom",
      "outputs": [],
      "stateMutability": "nonpayable",
      "type": "function"
    },
    {
      "inputs": [
        {
          "internalType": "address",
          "name": "operator",
          "type": "address"
        },
        {
          "internalType": "bool",
          "name": "approved",
          "type": "bool"
        }
      ],
      "name": "setApprovalForAll",
      "outputs": [],
      "stateMutability": "nonpayable",
      "type": "function"
    },
    {
      "inputs": [
        {
          "internalType": "uint256",
          "name": "tokenId",
          "type": "uint256"
        },
        {
          "internalType": "string",
          "name": "ipfsHash",
          "type": "string"
        }
      ],
      "name": "setIpfsHash",
      "outputs": [],
      "stateMutability": "nonpayable",
      "type": "function"
    },
    {
      "inputs": [
        {
          "internalType": "bytes4",
          "name": "interfaceId",
          "type": "bytes4"
        }
      ],
      "name": "supportsInterface",
      "outputs": [
        {
          "internalType": "bool",
          "name": "",
          "type": "bool"
        }
      ],
      "stateMutability": "view",
      "type": "function"
    },
    {
      "inputs": [],
      "name": "symbol",
      "outputs": [
        {
          "internalType": "string",
          "name": "",
          "type": "string"
        }
      ],
      "stateMutability": "view",
      "type": "function"
    },
    {
      "inputs": [
        {
          "internalType": "uint256",
          "name": "tokenId",
          "type": "uint256"
        }
      ],
      "name": "tokenURI",
      "outputs": [
        {
          "internalType": "string",
          "name": "",
          "type": "string"
        }
      ],
      "stateMutability": "view",
      "type": "function"
    },
    {
      "inputs": [
        {
          "internalType": "address",
          "name": "from",
          "type": "address"
        },
        {
          "internalType": "address",
          "name": "to",
          "type": "address"
        },
        {
          "internalType": "uint256",
          "name": "tokenId",
          "type": "uint256"
        }
      ],
      "name": "transferFrom",
      "outputs": [],
      "stateMutability": "nonpayable",
      "type": "function"
    }
  ],
  "bytecode": "0x608060405266038d7ea4c6800060065566038d7ea4c68000600755600160085573c4d78162471cffd293850c6ed4fd618240a75f1b600960006101000a81548173ffffffffffffffffffffffffffffffffffffffff021916908373ffffffffffffffffffffffffffffffffffffffff1602179055506040518060600160405280602e815260200162003fad602e9139600a90816200009e9190620003ea565b506040518060600160405280602e815260200162003fdb602e9139600b9081620000c99190620003ea565b50348015620000d757600080fd5b506040518060400160405280600e81526020017f43687562627947727562626965730000000000000000000000000000000000008152506040518060400160405280600681526020017f43485542425900000000000000000000000000000000000000000000000000008152508160009081620001559190620003ea565b508060019081620001679190620003ea565b505050620004d1565b600081519050919050565b7f4e487b7100000000000000000000000000000000000000000000000000000000600052604160045260246000fd5b7f4e487b7100000000000000000000000000000000000000000000000000000000600052602260045260246000fd5b60006002820490506001821680620001f257607f821691505b602082108103620002085762000207620001aa565b5b50919050565b60008190508160005260206000209050919050565b60006020601f8301049050919050565b600082821b905092915050565b600060088302620002727fffffffffffffffffffffffffffffffffffffffffffffffffffffffffffffffff8262000233565b6200027e868362000233565b95508019841693508086168417925050509392505050565b6000819050919050565b6000819050919050565b6000620002cb620002c5620002bf8462000296565b620002a0565b62000296565b9050919050565b6000819050919050565b620002e783620002aa565b620002ff620002f682620002d2565b84845462000240565b825550505050565b600090565b6200031662000307565b62000323818484620002dc565b505050565b5b818110156200034b576200033f6000826200030c565b60018101905062000329565b5050565b601f8211156200039a5762000364816200020e565b6200036f8462000223565b810160208510156200037f578190505b620003976200038e8562000223565b83018262000328565b50505b505050565b600082821c905092915050565b6000620003bf600019846008026200039f565b1980831691505092915050565b6000620003da8383620003ac565b9150826002028217905092915050565b620003f58262000170565b67ffffffffffffffff8111156200041157620004106200017b565b5b6200041d8254620001d9565b6200042a8282856200034f565b600060209050601f8311600181146200046257600084156200044d578287015190505b620004598582620003cc565b865550620004c9565b601f19841662000472866200020e565b60005b828110156200049c5784890151825560018201915060208501945060208101905062000475565b86831015620004bc5784890151620004b8601f891682620003ac565b8355505b6001600288020188555050505b505050505050565b613acc80620004e16000396000f3fe60806040526004361061011f5760003560e01c806374119a38116100a0578063b88d4fde11610064578063b88d4fde146103c9578063c3810fa5146103f2578063c87b56dd1461042f578063e985e9c51461046c578063f6255760146104a95761011f565b806374119a38146103125780637ca58c911461031c57806395d89b4114610338578063a22cb46514610363578063aa67c2441461038c5761011f565b806323b872dd116100e757806323b872dd1461021b57806342842e0e146102445780636352211e1461026d5780636f609633146102aa57806370a08231146102d55761011f565b806301ffc9a7146101245780630385c0de1461016157806306fdde031461018a578063081812fc146101b5578063095ea7b3146101f2575b600080fd5b34801561013057600080fd5b5061014b60048036038101906101469190612054565b6104e6565b604051610158919061209c565b60405180910390f35b34801561016d57600080fd5b5061018860048036038101906101839190612152565b6105c8565b005b34801561019657600080fd5b5061019f610692565b6040516101ac919061224b565b60405180910390f35b3480156101c157600080fd5b506101dc60048036038101906101d7919061226d565b610724565b6040516101e991906122db565b60405180910390f35b3480156101fe57600080fd5b5061021960048036038101906102149190612322565b6107a9565b005b34801561022757600080fd5b50610242600480360381019061023d9190612362565b6108c0565b005b34801561025057600080fd5b5061026b60048036038101906102669190612362565b610920565b005b34801561027957600080fd5b50610294600480360381019061028f919061226d565b610940565b6040516102a191906122db565b60405180910390f35b3480156102b657600080fd5b506102bf6109f1565b6040516102cc91906123c4565b60405180910390f35b3480156102e157600080fd5b506102fc60048036038101906102f791906123df565b6109fb565b60405161030991906123c4565b60405180910390f35b61031a610ab2565b005b6103366004803603810190610331919061226d565b610ba6565b005b34801561034457600080fd5b5061034d610c69565b60405161035a919061224b565b60405180910390f35b34801561036f57600080fd5b5061038a60048036038101906103859190612438565b610cfb565b005b34801561039857600080fd5b506103b360048036038101906103ae919061226d565b610d11565b6040516103c09190612628565b60405180910390f35b3480156103d557600080fd5b506103f060048036038101906103eb919061277a565b610f12565b005b3480156103fe57600080fd5b506104196004803603810190610414919061226d565b610f74565b604051610426919061209c565b60405180910390f35b34801561043b57600080fd5b506104566004803603810190610451919061226d565b610f8a565b604051610463919061224b565b60405180910390f35b34801561047857600080fd5b50610493600480360381019061048e91906127fd565b611031565b6040516104a0919061209c565b60405180910390f35b3480156104b557600080fd5b506104d060048036038101906104cb919061226d565b6110c5565b6040516104dd919061209c565b60405180910390f35b60007f80ac58cd000000000000000000000000000000000000000000000000000000007bffffffffffffffffffffffffffffffffffffffffffffffffffffffff1916827bffffffffffffffffffffffffffffffffffffffffffffffffffffffff191614806105b157507f5b5e139f000000000000000000000000000000000000000000000000000000007bffffffffffffffffffffffffffffffffffffffffffffffffffffffff1916827bffffffffffffffffffffffffffffffffffffffffffffffffffffffff1916145b806105c157506105c0826110e5565b5b9050919050565b600960009054906101000a900473ffffffffffffffffffffffffffffffffffffffff1673ffffffffffffffffffffffffffffffffffffffff163373ffffffffffffffffffffffffffffffffffffffff161461062257600080fd5b61062b83610f74565b61066a576040517f08c379a000000000000000000000000000000000000000000000000000000000815260040161066190612889565b60405180910390fd5b818160106000868152602001908152602001600020918261068c929190612ac0565b50505050565b6060600080546106a1906128e3565b80601f01602080910402602001604051908101604052809291908181526020018280546106cd906128e3565b801561071a5780601f106106ef5761010080835404028352916020019161071a565b820191906000526020600020905b8154815290600101906020018083116106fd57829003601f168201915b5050505050905090565b600061072f8261114f565b61076e576040517f08c379a000000000000000000000000000000000000000000000000000000000815260040161076590612c02565b60405180910390fd5b6004600083815260200190815260200160002060009054906101000a900473ffffffffffffffffffffffffffffffffffffffff169050919050565b60006107b482610940565b90508073ffffffffffffffffffffffffffffffffffffffff168373ffffffffffffffffffffffffffffffffffffffff1603610824576040517f08c379a000000000000000000000000000000000000000000000000000000000815260040161081b90612c94565b60405180910390fd5b8073ffffffffffffffffffffffffffffffffffffffff166108436111bb565b73ffffffffffffffffffffffffffffffffffffffff16148061087257506108718161086c6111bb565b611031565b5b6108b1576040517f08c379a00000000000000000000000000000000000000000000000000000000081526004016108a890612d26565b60405180910390fd5b6108bb83836111c3565b505050565b6108d16108cb6111bb565b8261127c565b610910576040517f08c379a000000000000000000000000000000000000000000000000000000000815260040161090790612db8565b60405180910390fd5b61091b83838361135a565b505050565b61093b83838360405180602001604052806000815250610f12565b505050565b6000806002600084815260200190815260200160002060009054906101000a900473ffffffffffffffffffffffffffffffffffffffff169050600073ffffffffffffffffffffffffffffffffffffffff168173ffffffffffffffffffffffffffffffffffffffff16036109e8576040517f08c379a00000000000000000000000000000000000000000000000000000000081526004016109df90612e4a565b60405180910390fd5b80915050919050565b6000600654905090565b60008073ffffffffffffffffffffffffffffffffffffffff168273ffffffffffffffffffffffffffffffffffffffff1603610a6b576040517f08c379a0000000000000000000000000000000000000000000000000000000008152600401610a6290612edc565b60405180910390fd5b600360008373ffffffffffffffffffffffffffffffffffffffff1673ffffffffffffffffffffffffffffffffffffffff168152602001908152602001600020549050919050565b6000610abc6109f1565b905080341015610b01576040517f08c379a0000000000000000000000000000000000000000000000000000000008152600401610af890612f48565b60405180910390fd5b610b0b600c6115c0565b60003390506000610b1c600c6115d6565b9050610b2882826115e4565b600b601060008381526020019081526020016000209081610b499190612f93565b50610b5f818434610b5a91906130aa565b6117bd565b7f747d8837f4c4a679877b5b9ac39bdf2d007b0848be9a28debd8c94eee499800a8282604051610b909291906130de565b60405180910390a1610ba181611880565b505050565b610baf81610f74565b610bee576040517f08c379a0000000000000000000000000000000000000000000000000000000008152600401610be590612889565b60405180910390fd5b60003411610c31576040517f08c379a0000000000000000000000000000000000000000000000000000000008152600401610c2890613153565b60405180910390fd5b610c3b81346117bd565b600a601060008381526020019081526020016000209081610c5c9190612f93565b50610c6681611880565b50565b606060018054610c78906128e3565b80601f0160208091040260200160405190810160405280929190818152602001828054610ca4906128e3565b8015610cf15780601f10610cc657610100808354040283529160200191610cf1565b820191906000526020600020905b815481529060010190602001808311610cd457829003601f168201915b5050505050905090565b610d0d610d066111bb565b83836118f8565b5050565b610d19611fc0565b610d2282610f74565b610d61576040517f08c379a0000000000000000000000000000000000000000000000000000000008152600401610d5890612889565b60405180910390fd5b6040518060800160405280600e6000858152602001908152602001600020548152602001600d6000858152602001908152602001600020548152602001600f6000858152602001908152602001600020805480602002602001604051908101604052809291908181526020016000905b82821015610e635783829060005260206000209060020201604051806040016040529081600082015481526020016001820160009054906101000a900473ffffffffffffffffffffffffffffffffffffffff1673ffffffffffffffffffffffffffffffffffffffff1673ffffffffffffffffffffffffffffffffffffffff168152505081526020019060010190610dd1565b505050508152602001601060008581526020019081526020016000208054610e8a906128e3565b80601f0160208091040260200160405190810160405280929190818152602001828054610eb6906128e3565b8015610f035780601f10610ed857610100808354040283529160200191610f03565b820191906000526020600020905b815481529060010190602001808311610ee657829003601f168201915b50505050508152509050919050565b610f23610f1d6111bb565b8361127c565b610f62576040517f08c379a0000000000000000000000000000000000000000000000000000000008152600401610f5990612db8565b60405180910390fd5b610f6e84848484611a64565b50505050565b6000610f80600c6115d6565b8211159050919050565b6060610f958261114f565b610fd4576040517f08c379a0000000000000000000000000000000000000000000000000000000008152600401610fcb906131e5565b60405180910390fd5b6000610fde611ac0565b90506000815111610ffe5760405180602001604052806000815250611029565b8061100884611ae0565b604051602001611019929190613241565b6040516020818303038152906040525b915050919050565b6000600560008473ffffffffffffffffffffffffffffffffffffffff1673ffffffffffffffffffffffffffffffffffffffff16815260200190815260200160002060008373ffffffffffffffffffffffffffffffffffffffff1673ffffffffffffffffffffffffffffffffffffffff16815260200190815260200160002060009054906101000a900460ff16905092915050565b600080600e60008481526020019081526020016000205414159050919050565b60007f01ffc9a7000000000000000000000000000000000000000000000000000000007bffffffffffffffffffffffffffffffffffffffffffffffffffffffff1916827bffffffffffffffffffffffffffffffffffffffffffffffffffffffff1916149050919050565b60008073ffffffffffffffffffffffffffffffffffffffff166002600084815260200190815260200160002060009054906101000a900473ffffffffffffffffffffffffffffffffffffffff1673ffffffffffffffffffffffffffffffffffffffff1614159050919050565b600033905090565b816004600083815260200190815260200160002060006101000a81548173ffffffffffffffffffffffffffffffffffffffff021916908373ffffffffffffffffffffffffffffffffffffffff160217905550808273ffffffffffffffffffffffffffffffffffffffff1661123683610940565b73ffffffffffffffffffffffffffffffffffffffff167f8c5be1e5ebec7d5bd14f71427d1e84f3dd0314c0f7b2291e5b200ac8c7c3b92560405160405180910390a45050565b60006112878261114f565b6112c6576040517f08c379a00000000000000000000000000000000000000000000000000000000081526004016112bd906132d7565b60405180910390fd5b60006112d183610940565b90508073ffffffffffffffffffffffffffffffffffffffff168473ffffffffffffffffffffffffffffffffffffffff16148061131357506113128185611031565b5b8061135157508373ffffffffffffffffffffffffffffffffffffffff1661133984610724565b73ffffffffffffffffffffffffffffffffffffffff16145b91505092915050565b8273ffffffffffffffffffffffffffffffffffffffff1661137a82610940565b73ffffffffffffffffffffffffffffffffffffffff16146113d0576040517f08c379a00000000000000000000000000000000000000000000000000000000081526004016113c790613369565b60405180910390fd5b600073ffffffffffffffffffffffffffffffffffffffff168273ffffffffffffffffffffffffffffffffffffffff160361143f576040517f08c379a0000000000000000000000000000000000000000000000000000000008152600401611436906133fb565b60405180910390fd5b61144a838383611c40565b6114556000826111c3565b6001600360008573ffffffffffffffffffffffffffffffffffffffff1673ffffffffffffffffffffffffffffffffffffffff16815260200190815260200160002060008282546114a591906130aa565b925050819055506001600360008473ffffffffffffffffffffffffffffffffffffffff1673ffffffffffffffffffffffffffffffffffffffff16815260200190815260200160002060008282546114fc919061341b565b92505081905550816002600083815260200190815260200160002060006101000a81548173ffffffffffffffffffffffffffffffffffffffff021916908373ffffffffffffffffffffffffffffffffffffffff160217905550808273ffffffffffffffffffffffffffffffffffffffff168473ffffffffffffffffffffffffffffffffffffffff167fddf252ad1be2c89b69c2b068fc378daa952ba7f163c4a11628f55a4df523b3ef60405160405180910390a46115bb838383611c45565b505050565b6001816000016000828254019250508190555050565b600081600001549050919050565b600073ffffffffffffffffffffffffffffffffffffffff168273ffffffffffffffffffffffffffffffffffffffff1603611653576040517f08c379a000000000000000000000000000000000000000000000000000000000815260040161164a906134bd565b60405180910390fd5b61165c8161114f565b1561169c576040517f08c379a000000000000000000000000000000000000000000000000000000000815260040161169390613529565b60405180910390fd5b6116a860008383611c40565b6001600360008473ffffffffffffffffffffffffffffffffffffffff1673ffffffffffffffffffffffffffffffffffffffff16815260200190815260200160002060008282546116f8919061341b565b92505081905550816002600083815260200190815260200160002060006101000a81548173ffffffffffffffffffffffffffffffffffffffff021916908373ffffffffffffffffffffffffffffffffffffffff160217905550808273ffffffffffffffffffffffffffffffffffffffff16600073ffffffffffffffffffffffffffffffffffffffff167fddf252ad1be2c89b69c2b068fc378daa952ba7f163c4a11628f55a4df523b3ef60405160405180910390a46117b960008383611c45565b5050565b6117c682610f74565b611805576040517f08c379a00000000000000000000000000000000000000000000000000000000081526004016117fc90612889565b60405180910390fd5b6000600754826118159190613578565b905080600d6000858152602001908152602001600020600082825461183a919061341b565b9250508190555061184a836110c5565b15801561186c5750600854600d60008581526020019081526020016000205410155b1561187b5761187a83611d04565b5b505050565b7fc0b64981d2dfc46853bdf0b279971f83e0694e34ea08f5ea436d6365df9e530d81600e600084815260200190815260200160002054600d600085815260200190815260200160002054600f60008681526020019081526020016000206040516118ed949392919061370e565b60405180910390a150565b8173ffffffffffffffffffffffffffffffffffffffff168373ffffffffffffffffffffffffffffffffffffffff1603611966576040517f08c379a000000000000000000000000000000000000000000000000000000000815260040161195d906137a6565b60405180910390fd5b80600560008573ffffffffffffffffffffffffffffffffffffffff1673ffffffffffffffffffffffffffffffffffffffff16815260200190815260200160002060008473ffffffffffffffffffffffffffffffffffffffff1673ffffffffffffffffffffffffffffffffffffffff16815260200190815260200160002060006101000a81548160ff0219169083151502179055508173ffffffffffffffffffffffffffffffffffffffff168373ffffffffffffffffffffffffffffffffffffffff167f17307eab39ab6107e8899845ad3d59bd9653f200f220920489ca2b5937696c3183604051611a57919061209c565b60405180910390a3505050565b611a6f84848461135a565b611a7b84848484611dbd565b611aba576040517f08c379a0000000000000000000000000000000000000000000000000000000008152600401611ab190613838565b60405180910390fd5b50505050565b6060604051806060016040528060218152602001613a7660219139905090565b606060008203611b27576040518060400160405280600181526020017f30000000000000000000000000000000000000000000000000000000000000008152509050611c3b565b600082905060005b60008214611b59578080611b4290613858565b915050600a82611b529190613578565b9150611b2f565b60008167ffffffffffffffff811115611b7557611b7461264f565b5b6040519080825280601f01601f191660200182016040528015611ba75781602001600182028036833780820191505090505b5090505b60008514611c3457600182611bc091906130aa565b9150600a85611bcf91906138a0565b6030611bdb919061341b565b60f81b818381518110611bf157611bf06138d1565b5b60200101907effffffffffffffffffffffffffffffffffffffffffffffffffffffffffffff1916908160001a905350600a85611c2d9190613578565b9450611bab565b8093505050505b919050565b505050565b600f600082815260200190815260200160002060405180604001604052804281526020018473ffffffffffffffffffffffffffffffffffffffff1681525090806001815401808255809150506001900390600052602060002090600202016000909190919091506000820151816000015560208201518160010160006101000a81548173ffffffffffffffffffffffffffffffffffffffff021916908373ffffffffffffffffffffffffffffffffffffffff1602179055505050505050565b611d0d816110c5565b15611d4d576040517f08c379a0000000000000000000000000000000000000000000000000000000008152600401611d4490613972565b60405180910390fd5b611d5681610f74565b611d95576040517f08c379a0000000000000000000000000000000000000000000000000000000008152600401611d8c90612889565b60405180910390fd5b6000611d9f611f44565b905080600e6000848152602001908152602001600020819055505050565b6000611dde8473ffffffffffffffffffffffffffffffffffffffff16611f9d565b15611f37578373ffffffffffffffffffffffffffffffffffffffff1663150b7a02611e076111bb565b8786866040518563ffffffff1660e01b8152600401611e2994939291906139e7565b6020604051808303816000875af1925050508015611e6557506040513d601f19601f82011682018060405250810190611e629190613a48565b60015b611ee7573d8060008114611e95576040519150601f19603f3d011682016040523d82523d6000602084013e611e9a565b606091505b506000815103611edf576040517f08c379a0000000000000000000000000000000000000000000000000000000008152600401611ed690613838565b60405180910390fd5b805181602001fd5b63150b7a0260e01b7bffffffffffffffffffffffffffffffffffffffffffffffffffffffff1916817bffffffffffffffffffffffffffffffffffffffffffffffffffffffff191614915050611f3c565b600190505b949350505050565b600080600f42611f5491906138a0565b905060006008821015611f6a5760019050611f95565b600c821015611f7c5760029050611f94565b600e821015611f8e5760039050611f93565b600490505b5b5b809250505090565b6000808273ffffffffffffffffffffffffffffffffffffffff163b119050919050565b6040518060800160405280600081526020016000815260200160608152602001606081525090565b6000604051905090565b600080fd5b600080fd5b60007fffffffff0000000000000000000000000000000000000000000000000000000082169050919050565b61203181611ffc565b811461203c57600080fd5b50565b60008135905061204e81612028565b92915050565b60006020828403121561206a57612069611ff2565b5b60006120788482850161203f565b91505092915050565b60008115159050919050565b61209681612081565b82525050565b60006020820190506120b1600083018461208d565b92915050565b6000819050919050565b6120ca816120b7565b81146120d557600080fd5b50565b6000813590506120e7816120c1565b92915050565b600080fd5b600080fd5b600080fd5b60008083601f840112612112576121116120ed565b5b8235905067ffffffffffffffff81111561212f5761212e6120f2565b5b60208301915083600182028301111561214b5761214a6120f7565b5b9250929050565b60008060006040848603121561216b5761216a611ff2565b5b6000612179868287016120d8565b935050602084013567ffffffffffffffff81111561219a57612199611ff7565b5b6121a6868287016120fc565b92509250509250925092565b600081519050919050565b600082825260208201905092915050565b60005b838110156121ec5780820151818401526020810190506121d1565b838111156121fb576000848401525b50505050565b6000601f19601f8301169050919050565b600061221d826121b2565b61222781856121bd565b93506122378185602086016121ce565b61224081612201565b840191505092915050565b600060208201905081810360008301526122658184612212565b905092915050565b60006020828403121561228357612282611ff2565b5b6000612291848285016120d8565b91505092915050565b600073ffffffffffffffffffffffffffffffffffffffff82169050919050565b60006122c58261229a565b9050919050565b6122d5816122ba565b82525050565b60006020820190506122f060008301846122cc565b92915050565b6122ff816122ba565b811461230a57600080fd5b50565b60008135905061231c816122f6565b92915050565b6000806040838503121561233957612338611ff2565b5b60006123478582860161230d565b9250506020612358858286016120d8565b9150509250929050565b60008060006060848603121561237b5761237a611ff2565b5b60006123898682870161230d565b935050602061239a8682870161230d565b92505060406123ab868287016120d8565b9150509250925092565b6123be816120b7565b82525050565b60006020820190506123d960008301846123b5565b92915050565b6000602082840312156123f5576123f4611ff2565b5b60006124038482850161230d565b91505092915050565b61241581612081565b811461242057600080fd5b50565b6000813590506124328161240c565b92915050565b6000806040838503121561244f5761244e611ff2565b5b600061245d8582860161230d565b925050602061246e85828601612423565b9150509250929050565b612481816120b7565b82525050565b600081519050919050565b600082825260208201905092915050565b6000819050602082019050919050565b6124bc816122ba565b82525050565b6040820160008201516124d86000850182612478565b5060208201516124eb60208501826124b3565b50505050565b60006124fd83836124c2565b60408301905092915050565b6000602082019050919050565b600061252182612487565b61252b8185612492565b9350612536836124a3565b8060005b8381101561256757815161254e88826124f1565b975061255983612509565b92505060018101905061253a565b5085935050505092915050565b600082825260208201905092915050565b6000612590826121b2565b61259a8185612574565b93506125aa8185602086016121ce565b6125b381612201565b840191505092915050565b60006080830160008301516125d66000860182612478565b5060208301516125e96020860182612478565b50604083015184820360408601526126018282612516565b9150506060830151848203606086015261261b8282612585565b9150508091505092915050565b6000602082019050818103600083015261264281846125be565b905092915050565b600080fd5b7f4e487b7100000000000000000000000000000000000000000000000000000000600052604160045260246000fd5b61268782612201565b810181811067ffffffffffffffff821117156126a6576126a561264f565b5b80604052505050565b60006126b9611fe8565b90506126c5828261267e565b919050565b600067ffffffffffffffff8211156126e5576126e461264f565b5b6126ee82612201565b9050602081019050919050565b82818337600083830152505050565b600061271d612718846126ca565b6126af565b9050828152602081018484840111156127395761273861264a565b5b6127448482856126fb565b509392505050565b600082601f830112612761576127606120ed565b5b813561277184826020860161270a565b91505092915050565b6000806000806080858703121561279457612793611ff2565b5b60006127a28782880161230d565b94505060206127b38782880161230d565b93505060406127c4878288016120d8565b925050606085013567ffffffffffffffff8111156127e5576127e4611ff7565b5b6127f18782880161274c565b91505092959194509250565b6000806040838503121561281457612813611ff2565b5b60006128228582860161230d565b92505060206128338582860161230d565b9150509250929050565b7f496e76616c696420746f6b656e20494400000000000000000000000000000000600082015250565b60006128736010836121bd565b915061287e8261283d565b602082019050919050565b600060208201905081810360008301526128a281612866565b9050919050565b600082905092915050565b7f4e487b7100000000000000000000000000000000000000000000000000000000600052602260045260246000fd5b600060028204905060018216806128fb57607f821691505b60208210810361290e5761290d6128b4565b5b50919050565b60008190508160005260206000209050919050565b60006020601f8301049050919050565b600082821b905092915050565b6000600883026129767fffffffffffffffffffffffffffffffffffffffffffffffffffffffffffffffff82612939565b6129808683612939565b95508019841693508086168417925050509392505050565b6000819050919050565b60006129bd6129b86129b3846120b7565b612998565b6120b7565b9050919050565b6000819050919050565b6129d7836129a2565b6129eb6129e3826129c4565b848454612946565b825550505050565b600090565b612a006129f3565b612a0b8184846129ce565b505050565b5b81811015612a2f57612a246000826129f8565b600181019050612a11565b5050565b601f821115612a7457612a4581612914565b612a4e84612929565b81016020851015612a5d578190505b612a71612a6985612929565b830182612a10565b50505b505050565b600082821c905092915050565b6000612a9760001984600802612a79565b1980831691505092915050565b6000612ab08383612a86565b9150826002028217905092915050565b612aca83836128a9565b67ffffffffffffffff811115612ae357612ae261264f565b5b612aed82546128e3565b612af8828285612a33565b6000601f831160018114612b275760008415612b15578287013590505b612b1f8582612aa4565b865550612b87565b601f198416612b3586612914565b60005b82811015612b5d57848901358255600182019150602085019450602081019050612b38565b86831015612b7a5784890135612b76601f891682612a86565b8355505b6001600288020188555050505b50505050505050565b7f4552433732313a20617070726f76656420717565727920666f72206e6f6e657860008201527f697374656e7420746f6b656e0000000000000000000000000000000000000000602082015250565b6000612bec602c836121bd565b9150612bf782612b90565b604082019050919050565b60006020820190508181036000830152612c1b81612bdf565b9050919050565b7f4552433732313a20617070726f76616c20746f2063757272656e74206f776e6560008201527f7200000000000000000000000000000000000000000000000000000000000000602082015250565b6000612c7e6021836121bd565b9150612c8982612c22565b604082019050919050565b60006020820190508181036000830152612cad81612c71565b9050919050565b7f4552433732313a20617070726f76652063616c6c6572206973206e6f74206f7760008201527f6e6572206e6f7220617070726f76656420666f7220616c6c0000000000000000602082015250565b6000612d106038836121bd565b9150612d1b82612cb4565b604082019050919050565b60006020820190508181036000830152612d3f81612d03565b9050919050565b7f4552433732313a207472616e736665722063616c6c6572206973206e6f74206f60008201527f776e6572206e6f7220617070726f766564000000000000000000000000000000602082015250565b6000612da26031836121bd565b9150612dad82612d46565b604082019050919050565b60006020820190508181036000830152612dd181612d95565b9050919050565b7f4552433732313a206f776e657220717565727920666f72206e6f6e657869737460008201527f656e7420746f6b656e0000000000000000000000000000000000000000000000602082015250565b6000612e346029836121bd565b9150612e3f82612dd8565b604082019050919050565b60006020820190508181036000830152612e6381612e27565b9050919050565b7f4552433732313a2062616c616e636520717565727920666f7220746865207a6560008201527f726f206164647265737300000000000000000000000000000000000000000000602082015250565b6000612ec6602a836121bd565b9150612ed182612e6a565b604082019050919050565b60006020820190508181036000830152612ef581612eb9565b9050919050565b7f4d696e7420636f7374206e6f7420636f76657265640000000000000000000000600082015250565b6000612f326015836121bd565b9150612f3d82612efc565b602082019050919050565b60006020820190508181036000830152612f6181612f25565b9050919050565b600081549050612f77816128e3565b9050919050565b60008190508160005260206000209050919050565b818103612fa1575050613079565b612faa82612f68565b67ffffffffffffffff811115612fc357612fc261264f565b5b612fcd82546128e3565b612fd8828285612a33565b6000601f8311600181146130075760008415612ff5578287015490505b612fff8582612aa4565b865550613072565b601f19841661301587612f7e565b965061302086612914565b60005b8281101561304857848901548255600182019150600185019450602081019050613023565b868310156130655784890154613061601f891682612a86565b8355505b6001600288020188555050505b5050505050505b565b7f4e487b7100000000000000000000000000000000000000000000000000000000600052601160045260246000fd5b60006130b5826120b7565b91506130c0836120b7565b9250828210156130d3576130d261307b565b5b828203905092915050565b60006040820190506130f360008301856122cc565b61310060208301846123b5565b9392505050565b7f4d757374207370656e6420746f2067726f772074726565000000000000000000600082015250565b600061313d6017836121bd565b915061314882613107565b602082019050919050565b6000602082019050818103600083015261316c81613130565b9050919050565b7f4552433732314d657461646174613a2055524920717565727920666f72206e6f60008201527f6e6578697374656e7420746f6b656e0000000000000000000000000000000000602082015250565b60006131cf602f836121bd565b91506131da82613173565b604082019050919050565b600060208201905081810360008301526131fe816131c2565b9050919050565b600081905092915050565b600061321b826121b2565b6132258185613205565b93506132358185602086016121ce565b80840191505092915050565b600061324d8285613210565b91506132598284613210565b91508190509392505050565b7f4552433732313a206f70657261746f7220717565727920666f72206e6f6e657860008201527f697374656e7420746f6b656e0000000000000000000000000000000000000000602082015250565b60006132c1602c836121bd565b91506132cc82613265565b604082019050919050565b600060208201905081810360008301526132f0816132b4565b9050919050565b7f4552433732313a207472616e736665722066726f6d20696e636f72726563742060008201527f6f776e6572000000000000000000000000000000000000000000000000000000602082015250565b60006133536025836121bd565b915061335e826132f7565b604082019050919050565b6000602082019050818103600083015261338281613346565b9050919050565b7f4552433732313a207472616e7366657220746f20746865207a65726f2061646460008201527f7265737300000000000000000000000000000000000000000000000000000000602082015250565b60006133e56024836121bd565b91506133f082613389565b604082019050919050565b60006020820190508181036000830152613414816133d8565b9050919050565b6000613426826120b7565b9150613431836120b7565b9250827fffffffffffffffffffffffffffffffffffffffffffffffffffffffffffffffff038211156134665761346561307b565b5b828201905092915050565b7f4552433732313a206d696e7420746f20746865207a65726f2061646472657373600082015250565b60006134a76020836121bd565b91506134b282613471565b602082019050919050565b600060208201905081810360008301526134d68161349a565b9050919050565b7f4552433732313a20746f6b656e20616c7265616479206d696e74656400000000600082015250565b6000613513601c836121bd565b915061351e826134dd565b602082019050919050565b6000602082019050818103600083015261354281613506565b9050919050565b7f4e487b7100000000000000000000000000000000000000000000000000000000600052601260045260246000fd5b6000613583826120b7565b915061358e836120b7565b92508261359e5761359d613549565b5b828204905092915050565b600081549050919050565b600082825260208201905092915050565b60008190508160005260206000209050919050565b60008160001c9050919050565b6000819050919050565b60006136046135ff836135da565b6135e7565b9050919050565b600073ffffffffffffffffffffffffffffffffffffffff82169050919050565b600061363e613639836135da565b61360b565b9050919050565b60408201600080830154905061365a816135f1565b6136676000860182612478565b50600183015490506136788161362b565b61368560208601826124b3565b5050505050565b60006136988383613645565b60408301905092915050565b6000600282019050919050565b60006136bc826135a9565b6136c681856135b4565b93506136d1836135c5565b8060005b8381101561370157816136e8888261368c565b97506136f3836136a4565b9250506001810190506136d5565b5085935050505092915050565b600060808201905061372360008301876123b5565b61373060208301866123b5565b61373d60408301856123b5565b818103606083015261374f81846136b1565b905095945050505050565b7f4552433732313a20617070726f766520746f2063616c6c657200000000000000600082015250565b60006137906019836121bd565b915061379b8261375a565b602082019050919050565b600060208201905081810360008301526137bf81613783565b9050919050565b7f4552433732313a207472616e7366657220746f206e6f6e20455243373231526560008201527f63656976657220696d706c656d656e7465720000000000000000000000000000602082015250565b60006138226032836121bd565b915061382d826137c6565b604082019050919050565b6000602082019050818103600083015261385181613815565b9050919050565b6000613863826120b7565b91507fffffffffffffffffffffffffffffffffffffffffffffffffffffffffffffffff82036138955761389461307b565b5b600182019050919050565b60006138ab826120b7565b91506138b6836120b7565b9250826138c6576138c5613549565b5b828206905092915050565b7f4e487b7100000000000000000000000000000000000000000000000000000000600052603260045260246000fd5b7f42554721205261726974792073686f756c64206e6f7420616c7265616479206260008201527f6520736574000000000000000000000000000000000000000000000000000000602082015250565b600061395c6025836121bd565b915061396782613900565b604082019050919050565b6000602082019050818103600083015261398b8161394f565b9050919050565b600081519050919050565b600082825260208201905092915050565b60006139b982613992565b6139c3818561399d565b93506139d38185602086016121ce565b6139dc81612201565b840191505092915050565b60006080820190506139fc60008301876122cc565b613a0960208301866122cc565b613a1660408301856123b5565b8181036060830152613a2881846139ae565b905095945050505050565b600081519050613a4281612028565b92915050565b600060208284031215613a5e57613a5d611ff2565b5b6000613a6c84828501613a33565b9150509291505056fe68747470733a2f2f64656d6f2e73746f726a2d697066732e636f6d2f697066732fa2646970667358221220b64546ce35e5b8b323be707b10750fca75bf686d69b5c85e1b7fa220695a831f64736f6c634300080f0033516d635a54534d554d764666744d717155424679356a567945586741476d5253743258384c71474c426335515055516d516f3274515a6151756a6f6450525951476d59464336756d4e6873457771457378346d5a70506e38754c6b63",
  "linkReferences": {},
  "deployedLinkReferences": {}
}